{
  "_format": "hh-sol-artifact-1",
  "contractName": "DocumentManagementSystem",
  "sourceName": "contracts/DocumentManagementSystem.sol",
  "abi": [
    {
      "anonymous": false,
      "inputs": [
        {
          "indexed": false,
          "internalType": "string",
          "name": "path",
          "type": "string"
        },
        {
          "indexed": false,
          "internalType": "string",
          "name": "branch",
          "type": "string"
        }
      ],
      "name": "BranchAdded",
      "type": "event"
    },
    {
      "anonymous": false,
      "inputs": [
        {
          "indexed": false,
          "internalType": "uint256",
          "name": "id",
          "type": "uint256"
        },
        {
          "indexed": false,
          "internalType": "string",
          "name": "fileName",
          "type": "string"
        },
        {
          "indexed": false,
          "internalType": "string",
          "name": "folderName",
          "type": "string"
        },
        {
          "indexed": false,
          "internalType": "string",
          "name": "path",
          "type": "string"
        },
        {
          "indexed": false,
          "internalType": "string",
          "name": "ipfsHash",
          "type": "string"
        },
        {
          "indexed": false,
          "internalType": "string",
          "name": "branch",
          "type": "string"
        },
        {
          "indexed": false,
          "internalType": "string",
          "name": "department",
          "type": "string"
        },
        {
          "indexed": false,
          "internalType": "address",
          "name": "uploader",
          "type": "address"
        },
        {
          "indexed": false,
          "internalType": "bool",
          "name": "isPrivate",
          "type": "bool"
        }
      ],
      "name": "FileUploaded",
      "type": "event"
    },
    {
      "inputs": [
        {
          "internalType": "uint256",
          "name": "",
          "type": "uint256"
        }
      ],
      "name": "allPaths",
      "outputs": [
        {
          "internalType": "string",
          "name": "",
          "type": "string"
        }
      ],
      "stateMutability": "view",
      "type": "function"
    },
    {
      "inputs": [
        {
          "internalType": "string",
          "name": "",
          "type": "string"
        }
      ],
      "name": "branchesByPath",
      "outputs": [
        {
          "internalType": "string",
          "name": "name",
          "type": "string"
        }
      ],
      "stateMutability": "view",
      "type": "function"
    },
    {
      "inputs": [],
      "name": "fileCount",
      "outputs": [
        {
          "internalType": "uint256",
          "name": "",
          "type": "uint256"
        }
      ],
      "stateMutability": "view",
      "type": "function"
    },
    {
      "inputs": [
        {
          "internalType": "uint256",
          "name": "",
          "type": "uint256"
        }
      ],
      "name": "files",
      "outputs": [
        {
          "internalType": "uint256",
          "name": "id",
          "type": "uint256"
        },
        {
          "internalType": "string",
          "name": "fileName",
          "type": "string"
        },
        {
          "internalType": "string",
          "name": "folderName",
          "type": "string"
        },
        {
          "internalType": "string",
          "name": "path",
          "type": "string"
        },
        {
          "internalType": "string",
          "name": "ipfsHash",
          "type": "string"
        },
        {
          "internalType": "string",
          "name": "branch",
          "type": "string"
        },
        {
          "internalType": "string",
          "name": "department",
          "type": "string"
        },
        {
          "internalType": "address",
          "name": "uploader",
          "type": "address"
        },
        {
          "internalType": "bool",
          "name": "isPrivate",
          "type": "bool"
        }
      ],
      "stateMutability": "view",
      "type": "function"
    },
    {
      "inputs": [],
      "name": "getAllBranches",
      "outputs": [
        {
          "internalType": "string[]",
          "name": "",
          "type": "string[]"
        }
      ],
      "stateMutability": "view",
      "type": "function"
    },
    {
      "inputs": [
        {
          "internalType": "string",
          "name": "_branch",
          "type": "string"
        }
      ],
      "name": "getDepartmentsByBranch",
      "outputs": [
        {
          "internalType": "string[]",
          "name": "departments",
          "type": "string[]"
        }
      ],
      "stateMutability": "view",
      "type": "function"
    },
    {
      "inputs": [
        {
          "internalType": "string",
          "name": "_branch",
          "type": "string"
        },
        {
          "internalType": "string",
          "name": "_department",
          "type": "string"
        },
        {
          "internalType": "string",
          "name": "_folderName",
          "type": "string"
        }
      ],
      "name": "getFilesByFolder",
      "outputs": [
        {
          "components": [
            {
              "internalType": "uint256",
              "name": "id",
              "type": "uint256"
            },
            {
              "internalType": "string",
              "name": "fileName",
              "type": "string"
            },
            {
              "internalType": "string",
              "name": "folderName",
              "type": "string"
            },
            {
              "internalType": "string",
              "name": "path",
              "type": "string"
            },
            {
              "internalType": "string",
              "name": "ipfsHash",
              "type": "string"
            },
            {
              "internalType": "string",
              "name": "branch",
              "type": "string"
            },
            {
              "internalType": "string",
              "name": "department",
              "type": "string"
            },
            {
              "internalType": "address",
              "name": "uploader",
              "type": "address"
            },
            {
              "internalType": "bool",
              "name": "isPrivate",
              "type": "bool"
            }
          ],
          "internalType": "struct DocumentManagementSystem.File[]",
          "name": "fileDetails",
          "type": "tuple[]"
        }
      ],
      "stateMutability": "view",
      "type": "function"
    },
    {
      "inputs": [
        {
          "internalType": "string",
          "name": "_path",
          "type": "string"
        }
      ],
      "name": "getFilesByPath",
      "outputs": [
        {
          "components": [
            {
              "internalType": "uint256",
              "name": "id",
              "type": "uint256"
            },
            {
              "internalType": "string",
              "name": "fileName",
              "type": "string"
            },
            {
              "internalType": "string",
              "name": "folderName",
              "type": "string"
            },
            {
              "internalType": "string",
              "name": "path",
              "type": "string"
            },
            {
              "internalType": "string",
              "name": "ipfsHash",
              "type": "string"
            },
            {
              "internalType": "string",
              "name": "branch",
              "type": "string"
            },
            {
              "internalType": "string",
              "name": "department",
              "type": "string"
            },
            {
              "internalType": "address",
              "name": "uploader",
              "type": "address"
            },
            {
              "internalType": "bool",
              "name": "isPrivate",
              "type": "bool"
            }
          ],
          "internalType": "struct DocumentManagementSystem.File[]",
          "name": "fileDetails",
          "type": "tuple[]"
        }
      ],
      "stateMutability": "view",
      "type": "function"
    },
    {
      "inputs": [
        {
          "internalType": "string",
          "name": "_branch",
          "type": "string"
        },
        {
          "internalType": "string",
          "name": "_department",
          "type": "string"
        }
      ],
      "name": "getFoldersByDepartment",
      "outputs": [
        {
          "internalType": "string[]",
          "name": "folders",
          "type": "string[]"
        }
      ],
      "stateMutability": "view",
      "type": "function"
    },
    {
      "inputs": [
        {
          "internalType": "string[]",
          "name": "_fileNames",
          "type": "string[]"
        },
        {
          "internalType": "string",
          "name": "_folderName",
          "type": "string"
        },
        {
          "internalType": "string",
          "name": "_path",
          "type": "string"
        },
        {
          "internalType": "string[]",
          "name": "_ipfsHashes",
          "type": "string[]"
        },
        {
          "internalType": "string",
          "name": "_branch",
          "type": "string"
        },
        {
          "internalType": "string",
          "name": "_department",
          "type": "string"
        },
        {
          "internalType": "bool",
          "name": "_isPrivate",
          "type": "bool"
        }
      ],
      "name": "uploadFiles",
      "outputs": [],
      "stateMutability": "nonpayable",
      "type": "function"
    }
  ],
  "bytecode": "0x608060405234801561001057600080fd5b50613274806100206000396000f3fe608060405234801561001057600080fd5b506004361061009d5760003560e01c80634507010211610066578063450701021461015a578063bb3c03671461018a578063f0d81590146101ba578063f4c714b4146101ea578063f6f58b8e146102225761009d565b8062120c29146100a25780630dc1da4e146100be578063368b40d8146100ee5780633c0eadb01461011e578063439535191461013c575b600080fd5b6100bc60048036038101906100b7919061243c565b610252565b005b6100d860048036038101906100d39190612586565b610695565b6040516100e59190612710565b60405180910390f35b61010860048036038101906101039190612768565b610a94565b60405161011591906127df565b60405180910390f35b610126610b40565b6040516101339190612710565b60405180910390f35b610144610dc9565b6040516101519190612810565b60405180910390f35b610174600480360381019061016f919061282b565b610dcf565b6040516101819190612710565b60405180910390f35b6101a4600480360381019061019f9190612586565b6110b9565b6040516101b19190612aac565b60405180910390f35b6101d460048036038101906101cf9190612586565b611611565b6040516101e191906127df565b60405180910390f35b61020460048036038101906101ff9190612768565b6116cd565b60405161021999989796959493929190612aec565b60405180910390f35b61023c60048036038101906102379190612ba3565b611a78565b6040516102499190612aac565b60405180910390f35b8351875114610296576040517f08c379a000000000000000000000000000000000000000000000000000000000815260040161028d90612cbc565b60405180910390fd5b60005b87518110156104e557600360008154809291906102b590612d0b565b919050555060405180610120016040528060035481526020018983815181106102e1576102e0612d53565b5b6020026020010151815260200188815260200187815260200186838151811061030d5761030c612d53565b5b602002602001015181526020018581526020018481526020013373ffffffffffffffffffffffffffffffffffffffff168152602001831515815250600080600354815260200190815260200160002060008201518160000155602082015181600101908161037b9190612f8e565b5060408201518160020190816103919190612f8e565b5060608201518160030190816103a79190612f8e565b5060808201518160040190816103bd9190612f8e565b5060a08201518160050190816103d39190612f8e565b5060c08201518160060190816103e99190612f8e565b5060e08201518160070160006101000a81548173ffffffffffffffffffffffffffffffffffffffff021916908373ffffffffffffffffffffffffffffffffffffffff1602179055506101008201518160070160146101000a81548160ff0219169083151502179055509050507fa3d80337e3cf6fc1a4f03c067968b1b46a41a176c21c9d896909ff557aed445460035489838151811061048c5761048b612d53565b5b602002602001015189898986815181106104a9576104a8612d53565b5b60200260200101518989338a6040516104ca99989796959493929190612aec565b60405180910390a180806104dd90612d0b565b915050610299565b506000805b6002805490508110156105535786805190602001206002828154811061051357610512612d53565b5b9060005260206000200160405161052a9190613103565b6040518091039020036105405760019150610553565b808061054b90612d0b565b9150506104ea565b508061058f5760028690806001815401808255809150506001900390600052602060002001600090919091909150908161058d9190612f8e565b505b60006001876040516105a19190613156565b90815260200160405180910390206001018054905014806105c957506105c786856120c0565b155b1561068b57836001876040516105df9190613156565b908152602001604051809103902060000190816105fc9190612f8e565b5060018660405161060d9190613156565b9081526020016040518091039020600101839080600181540180825580915050600190039060005260206000200160009091909190915090816106509190612f8e565b507f39ba59c49b01df8281d6c94c991ee209516bf77c73c1d5b68a4dd3ebb16ad307868560405161068292919061316d565b60405180910390a15b5050505050505050565b6060600060035467ffffffffffffffff8111156106b5576106b46121ee565b5b6040519080825280602002602001820160405280156106e857816020015b60608152602001906001900390816106d35790505b5090506000805b6002805490508110156109e457600060016002838154811061071457610713612d53565b5b9060005260206000200160405161072b9190613227565b9081526020016040518091039020600001805461074790612db1565b80601f016020809104026020016040519081016040528092919081815260200182805461077390612db1565b80156107c05780601f10610795576101008083540402835291602001916107c0565b820191906000526020600020905b8154815290600101906020018083116107a357829003601f168201915b5050505050905085805190602001208180519060200120036109d05760006001600284815481106107f4576107f3612d53565b5b9060005260206000200160405161080b9190613227565b9081526020016040518091039020600101805480602002602001604051908101604052809291908181526020016000905b828210156108e857838290600052602060002001805461085b90612db1565b80601f016020809104026020016040519081016040528092919081815260200182805461088790612db1565b80156108d45780601f106108a9576101008083540402835291602001916108d4565b820191906000526020600020905b8154815290600101906020018083116108b757829003601f168201915b50505050508152602001906001019061083c565b50505050905060005b81518110156109cd576000805b8681101561096b5783838151811061091957610918612d53565b5b60200260200101518051906020012088828151811061093b5761093a612d53565b5b60200260200101518051906020012003610958576001915061096b565b808061096390612d0b565b9150506108fe565b50806109b95782828151811061098457610983612d53565b5b602002602001015187878151811061099f5761099e612d53565b5b602002602001018190525085806109b590612d0b565b9650505b5080806109c590612d0b565b9150506108f1565b50505b5080806109dc90612d0b565b9150506106ef565b508067ffffffffffffffff8111156109ff576109fe6121ee565b5b604051908082528060200260200182016040528015610a3257816020015b6060815260200190600190039081610a1d5790505b50925060005b81811015610a8c57828181518110610a5357610a52612d53565b5b6020026020010151848281518110610a6e57610a6d612d53565b5b60200260200101819052508080610a8490612d0b565b915050610a38565b505050919050565b60028181548110610aa457600080fd5b906000526020600020016000915090508054610abf90612db1565b80601f0160208091040260200160405190810160405280929190818152602001828054610aeb90612db1565b8015610b385780601f10610b0d57610100808354040283529160200191610b38565b820191906000526020600020905b815481529060010190602001808311610b1b57829003601f168201915b505050505081565b6060600060028054905067ffffffffffffffff811115610b6357610b626121ee565b5b604051908082528060200260200182016040528015610b9657816020015b6060815260200190600190039081610b815790505b5090506000805b600280549050811015610d15576000600160028381548110610bc257610bc1612d53565b5b90600052602060002001604051610bd99190613227565b90815260200160405180910390206000018054610bf590612db1565b80601f0160208091040260200160405190810160405280929190818152602001828054610c2190612db1565b8015610c6e5780601f10610c4357610100808354040283529160200191610c6e565b820191906000526020600020905b815481529060010190602001808311610c5157829003601f168201915b505050505090506000805b84811015610ccc578280519060200120868281518110610c9c57610c9b612d53565b5b60200260200101518051906020012003610cb95760019150610ccc565b8080610cc490612d0b565b915050610c79565b5080610d005781858581518110610ce657610ce5612d53565b5b60200260200101819052508380610cfc90612d0b565b9450505b50508080610d0d90612d0b565b915050610b9d565b5060008167ffffffffffffffff811115610d3257610d316121ee565b5b604051908082528060200260200182016040528015610d6557816020015b6060815260200190600190039081610d505790505b50905060005b82811015610dbf57838181518110610d8657610d85612d53565b5b6020026020010151828281518110610da157610da0612d53565b5b60200260200101819052508080610db790612d0b565b915050610d6b565b5080935050505090565b60035481565b6060600060035467ffffffffffffffff811115610def57610dee6121ee565b5b604051908082528060200260200182016040528015610e2257816020015b6060815260200190600190039081610e0d5790505b509050600080600190505b6003548111611008578580519060200120600080838152602001908152602001600020600501604051610e609190613103565b6040518091039020148015610ea457508480519060200120600080838152602001908152602001600020600601604051610e9a9190613103565b6040518091039020145b15610ff5576000805b83811015610f2257600080848152602001908152602001600020600201604051610ed79190613103565b6040518091039020858281518110610ef257610ef1612d53565b5b60200260200101518051906020012003610f0f5760019150610f22565b8080610f1a90612d0b565b915050610ead565b5080610ff3576000808381526020019081526020016000206002018054610f4890612db1565b80601f0160208091040260200160405190810160405280929190818152602001828054610f7490612db1565b8015610fc15780601f10610f9657610100808354040283529160200191610fc1565b820191906000526020600020905b815481529060010190602001808311610fa457829003601f168201915b5050505050848481518110610fd957610fd8612d53565b5b60200260200101819052508280610fef90612d0b565b9350505b505b808061100090612d0b565b915050610e2d565b508067ffffffffffffffff811115611023576110226121ee565b5b60405190808252806020026020018201604052801561105657816020015b60608152602001906001900390816110415790505b50925060005b818110156110b05782818151811061107757611076612d53565b5b602002602001015184828151811061109257611091612d53565b5b602002602001018190525080806110a890612d0b565b91505061105c565b50505092915050565b6060600080600190505b60035481116111255783805190602001206000808381526020019081526020016000206003016040516110f69190613103565b60405180910390200361111257818061110e90612d0b565b9250505b808061111d90612d0b565b9150506110c3565b508067ffffffffffffffff8111156111405761113f6121ee565b5b60405190808252806020026020018201604052801561117957816020015b611166612160565b81526020019060019003908161115e5790505b509150600080600190505b60035481116116095784805190602001206000808381526020019081526020016000206003016040516111b79190613103565b6040518091039020036115f65760008082815260200190815260200160002060405180610120016040529081600082015481526020016001820180546111fc90612db1565b80601f016020809104026020016040519081016040528092919081815260200182805461122890612db1565b80156112755780601f1061124a57610100808354040283529160200191611275565b820191906000526020600020905b81548152906001019060200180831161125857829003601f168201915b5050505050815260200160028201805461128e90612db1565b80601f01602080910402602001604051908101604052809291908181526020018280546112ba90612db1565b80156113075780601f106112dc57610100808354040283529160200191611307565b820191906000526020600020905b8154815290600101906020018083116112ea57829003601f168201915b5050505050815260200160038201805461132090612db1565b80601f016020809104026020016040519081016040528092919081815260200182805461134c90612db1565b80156113995780601f1061136e57610100808354040283529160200191611399565b820191906000526020600020905b81548152906001019060200180831161137c57829003601f168201915b505050505081526020016004820180546113b290612db1565b80601f01602080910402602001604051908101604052809291908181526020018280546113de90612db1565b801561142b5780601f106114005761010080835404028352916020019161142b565b820191906000526020600020905b81548152906001019060200180831161140e57829003601f168201915b5050505050815260200160058201805461144490612db1565b80601f016020809104026020016040519081016040528092919081815260200182805461147090612db1565b80156114bd5780601f10611492576101008083540402835291602001916114bd565b820191906000526020600020905b8154815290600101906020018083116114a057829003601f168201915b505050505081526020016006820180546114d690612db1565b80601f016020809104026020016040519081016040528092919081815260200182805461150290612db1565b801561154f5780601f106115245761010080835404028352916020019161154f565b820191906000526020600020905b81548152906001019060200180831161153257829003601f168201915b505050505081526020016007820160009054906101000a900473ffffffffffffffffffffffffffffffffffffffff1673ffffffffffffffffffffffffffffffffffffffff1673ffffffffffffffffffffffffffffffffffffffff1681526020016007820160149054906101000a900460ff1615151515815250508483815181106115dc576115db612d53565b5b602002602001018190525081806115f290612d0b565b9250505b808061160190612d0b565b915050611184565b505050919050565b60018180516020810182018051848252602083016020850120818352809550505050505060009150905080600001805461164a90612db1565b80601f016020809104026020016040519081016040528092919081815260200182805461167690612db1565b80156116c35780601f10611698576101008083540402835291602001916116c3565b820191906000526020600020905b8154815290600101906020018083116116a657829003601f168201915b5050505050905081565b60006020528060005260406000206000915090508060000154908060010180546116f690612db1565b80601f016020809104026020016040519081016040528092919081815260200182805461172290612db1565b801561176f5780601f106117445761010080835404028352916020019161176f565b820191906000526020600020905b81548152906001019060200180831161175257829003601f168201915b50505050509080600201805461178490612db1565b80601f01602080910402602001604051908101604052809291908181526020018280546117b090612db1565b80156117fd5780601f106117d2576101008083540402835291602001916117fd565b820191906000526020600020905b8154815290600101906020018083116117e057829003601f168201915b50505050509080600301805461181290612db1565b80601f016020809104026020016040519081016040528092919081815260200182805461183e90612db1565b801561188b5780601f106118605761010080835404028352916020019161188b565b820191906000526020600020905b81548152906001019060200180831161186e57829003601f168201915b5050505050908060040180546118a090612db1565b80601f01602080910402602001604051908101604052809291908181526020018280546118cc90612db1565b80156119195780601f106118ee57610100808354040283529160200191611919565b820191906000526020600020905b8154815290600101906020018083116118fc57829003601f168201915b50505050509080600501805461192e90612db1565b80601f016020809104026020016040519081016040528092919081815260200182805461195a90612db1565b80156119a75780601f1061197c576101008083540402835291602001916119a7565b820191906000526020600020905b81548152906001019060200180831161198a57829003601f168201915b5050505050908060060180546119bc90612db1565b80601f01602080910402602001604051908101604052809291908181526020018280546119e890612db1565b8015611a355780601f10611a0a57610100808354040283529160200191611a35565b820191906000526020600020905b815481529060010190602001808311611a1857829003601f168201915b5050505050908060070160009054906101000a900473ffffffffffffffffffffffffffffffffffffffff16908060070160149054906101000a900460ff16905089565b6060600080600190505b6003548111611b5b578580519060200120600080838152602001908152602001600020600501604051611ab59190613103565b6040518091039020148015611af957508480519060200120600080838152602001908152602001600020600601604051611aef9190613103565b6040518091039020145b8015611b3457508380519060200120600080838152602001908152602001600020600201604051611b2a9190613103565b6040518091039020145b15611b48578180611b4490612d0b565b9250505b8080611b5390612d0b565b915050611a82565b508067ffffffffffffffff811115611b7657611b756121ee565b5b604051908082528060200260200182016040528015611baf57816020015b611b9c612160565b815260200190600190039081611b945790505b509150600080600190505b60035481116120b6578680519060200120600080838152602001908152602001600020600501604051611bed9190613103565b6040518091039020148015611c3157508580519060200120600080838152602001908152602001600020600601604051611c279190613103565b6040518091039020145b8015611c6c57508480519060200120600080838152602001908152602001600020600201604051611c629190613103565b6040518091039020145b156120a3576000808281526020019081526020016000206040518061012001604052908160008201548152602001600182018054611ca990612db1565b80601f0160208091040260200160405190810160405280929190818152602001828054611cd590612db1565b8015611d225780601f10611cf757610100808354040283529160200191611d22565b820191906000526020600020905b815481529060010190602001808311611d0557829003601f168201915b50505050508152602001600282018054611d3b90612db1565b80601f0160208091040260200160405190810160405280929190818152602001828054611d6790612db1565b8015611db45780601f10611d8957610100808354040283529160200191611db4565b820191906000526020600020905b815481529060010190602001808311611d9757829003601f168201915b50505050508152602001600382018054611dcd90612db1565b80601f0160208091040260200160405190810160405280929190818152602001828054611df990612db1565b8015611e465780601f10611e1b57610100808354040283529160200191611e46565b820191906000526020600020905b815481529060010190602001808311611e2957829003601f168201915b50505050508152602001600482018054611e5f90612db1565b80601f0160208091040260200160405190810160405280929190818152602001828054611e8b90612db1565b8015611ed85780601f10611ead57610100808354040283529160200191611ed8565b820191906000526020600020905b815481529060010190602001808311611ebb57829003601f168201915b50505050508152602001600582018054611ef190612db1565b80601f0160208091040260200160405190810160405280929190818152602001828054611f1d90612db1565b8015611f6a5780601f10611f3f57610100808354040283529160200191611f6a565b820191906000526020600020905b815481529060010190602001808311611f4d57829003601f168201915b50505050508152602001600682018054611f8390612db1565b80601f0160208091040260200160405190810160405280929190818152602001828054611faf90612db1565b8015611ffc5780601f10611fd157610100808354040283529160200191611ffc565b820191906000526020600020905b815481529060010190602001808311611fdf57829003601f168201915b505050505081526020016007820160009054906101000a900473ffffffffffffffffffffffffffffffffffffffff1673ffffffffffffffffffffffffffffffffffffffff1673ffffffffffffffffffffffffffffffffffffffff1681526020016007820160149054906101000a900460ff16151515158152505084838151811061208957612088612d53565b5b6020026020010181905250818061209f90612d0b565b9250505b80806120ae90612d0b565b915050611bba565b5050509392505050565b600080600090505b6001846040516120d89190613156565b90815260200160405180910390206001018054905081101561215457828051906020012060018560405161210c9190613156565b908152602001604051809103902060000160405161212a9190613103565b60405180910390200361214157600191505061215a565b808061214c90612d0b565b9150506120c8565b50600090505b92915050565b60405180610120016040528060008152602001606081526020016060815260200160608152602001606081526020016060815260200160608152602001600073ffffffffffffffffffffffffffffffffffffffff1681526020016000151581525090565b6000604051905090565b600080fd5b600080fd5b600080fd5b6000601f19601f8301169050919050565b7f4e487b7100000000000000000000000000000000000000000000000000000000600052604160045260246000fd5b612226826121dd565b810181811067ffffffffffffffff82111715612245576122446121ee565b5b80604052505050565b60006122586121c4565b9050612264828261221d565b919050565b600067ffffffffffffffff821115612284576122836121ee565b5b602082029050602081019050919050565b600080fd5b600080fd5b600067ffffffffffffffff8211156122ba576122b96121ee565b5b6122c3826121dd565b9050602081019050919050565b82818337600083830152505050565b60006122f26122ed8461229f565b61224e565b90508281526020810184848401111561230e5761230d61229a565b5b6123198482856122d0565b509392505050565b600082601f830112612336576123356121d8565b5b81356123468482602086016122df565b91505092915050565b600061236261235d84612269565b61224e565b9050808382526020820190506020840283018581111561238557612384612295565b5b835b818110156123cc57803567ffffffffffffffff8111156123aa576123a96121d8565b5b8086016123b78982612321565b85526020850194505050602081019050612387565b5050509392505050565b600082601f8301126123eb576123ea6121d8565b5b81356123fb84826020860161234f565b91505092915050565b60008115159050919050565b61241981612404565b811461242457600080fd5b50565b60008135905061243681612410565b92915050565b600080600080600080600060e0888a03121561245b5761245a6121ce565b5b600088013567ffffffffffffffff811115612479576124786121d3565b5b6124858a828b016123d6565b975050602088013567ffffffffffffffff8111156124a6576124a56121d3565b5b6124b28a828b01612321565b965050604088013567ffffffffffffffff8111156124d3576124d26121d3565b5b6124df8a828b01612321565b955050606088013567ffffffffffffffff811115612500576124ff6121d3565b5b61250c8a828b016123d6565b945050608088013567ffffffffffffffff81111561252d5761252c6121d3565b5b6125398a828b01612321565b93505060a088013567ffffffffffffffff81111561255a576125596121d3565b5b6125668a828b01612321565b92505060c06125778a828b01612427565b91505092959891949750929550565b60006020828403121561259c5761259b6121ce565b5b600082013567ffffffffffffffff8111156125ba576125b96121d3565b5b6125c684828501612321565b91505092915050565b600081519050919050565b600082825260208201905092915050565b6000819050602082019050919050565b600081519050919050565b600082825260208201905092915050565b60005b8381101561263557808201518184015260208101905061261a565b60008484015250505050565b600061264c826125fb565b6126568185612606565b9350612666818560208601612617565b61266f816121dd565b840191505092915050565b60006126868383612641565b905092915050565b6000602082019050919050565b60006126a6826125cf565b6126b081856125da565b9350836020820285016126c2856125eb565b8060005b858110156126fe57848403895281516126df858261267a565b94506126ea8361268e565b925060208a019950506001810190506126c6565b50829750879550505050505092915050565b6000602082019050818103600083015261272a818461269b565b905092915050565b6000819050919050565b61274581612732565b811461275057600080fd5b50565b6000813590506127628161273c565b92915050565b60006020828403121561277e5761277d6121ce565b5b600061278c84828501612753565b91505092915050565b600082825260208201905092915050565b60006127b1826125fb565b6127bb8185612795565b93506127cb818560208601612617565b6127d4816121dd565b840191505092915050565b600060208201905081810360008301526127f981846127a6565b905092915050565b61280a81612732565b82525050565b60006020820190506128256000830184612801565b92915050565b60008060408385031215612842576128416121ce565b5b600083013567ffffffffffffffff8111156128605761285f6121d3565b5b61286c85828601612321565b925050602083013567ffffffffffffffff81111561288d5761288c6121d3565b5b61289985828601612321565b9150509250929050565b600081519050919050565b600082825260208201905092915050565b6000819050602082019050919050565b6128d881612732565b82525050565b600073ffffffffffffffffffffffffffffffffffffffff82169050919050565b6000612909826128de565b9050919050565b612919816128fe565b82525050565b61292881612404565b82525050565b60006101208301600083015161294760008601826128cf565b506020830151848203602086015261295f8282612641565b915050604083015184820360408601526129798282612641565b915050606083015184820360608601526129938282612641565b915050608083015184820360808601526129ad8282612641565b91505060a083015184820360a08601526129c78282612641565b91505060c083015184820360c08601526129e18282612641565b91505060e08301516129f660e0860182612910565b50610100830151612a0b61010086018261291f565b508091505092915050565b6000612a22838361292e565b905092915050565b6000602082019050919050565b6000612a42826128a3565b612a4c81856128ae565b935083602082028501612a5e856128bf565b8060005b85811015612a9a5784840389528151612a7b8582612a16565b9450612a8683612a2a565b925060208a01995050600181019050612a62565b50829750879550505050505092915050565b60006020820190508181036000830152612ac68184612a37565b905092915050565b612ad7816128fe565b82525050565b612ae681612404565b82525050565b600061012082019050612b02600083018c612801565b8181036020830152612b14818b6127a6565b90508181036040830152612b28818a6127a6565b90508181036060830152612b3c81896127a6565b90508181036080830152612b5081886127a6565b905081810360a0830152612b6481876127a6565b905081810360c0830152612b7881866127a6565b9050612b8760e0830185612ace565b612b95610100830184612add565b9a9950505050505050505050565b600080600060608486031215612bbc57612bbb6121ce565b5b600084013567ffffffffffffffff811115612bda57612bd96121d3565b5b612be686828701612321565b935050602084013567ffffffffffffffff811115612c0757612c066121d3565b5b612c1386828701612321565b925050604084013567ffffffffffffffff811115612c3457612c336121d3565b5b612c4086828701612321565b9150509250925092565b7f46696c65206e616d657320616e6420495046532068617368657320617272617960008201527f73206d7573742068617665207468652073616d65206c656e6774680000000000602082015250565b6000612ca6603b83612795565b9150612cb182612c4a565b604082019050919050565b60006020820190508181036000830152612cd581612c99565b9050919050565b7f4e487b7100000000000000000000000000000000000000000000000000000000600052601160045260246000fd5b6000612d1682612732565b91507fffffffffffffffffffffffffffffffffffffffffffffffffffffffffffffffff8203612d4857612d47612cdc565b5b600182019050919050565b7f4e487b7100000000000000000000000000000000000000000000000000000000600052603260045260246000fd5b7f4e487b7100000000000000000000000000000000000000000000000000000000600052602260045260246000fd5b60006002820490506001821680612dc957607f821691505b602082108103612ddc57612ddb612d82565b5b50919050565b60008190508160005260206000209050919050565b60006020601f8301049050919050565b600082821b905092915050565b600060088302612e447fffffffffffffffffffffffffffffffffffffffffffffffffffffffffffffffff82612e07565b612e4e8683612e07565b95508019841693508086168417925050509392505050565b6000819050919050565b6000612e8b612e86612e8184612732565b612e66565b612732565b9050919050565b6000819050919050565b612ea583612e70565b612eb9612eb182612e92565b848454612e14565b825550505050565b600090565b612ece612ec1565b612ed9818484612e9c565b505050565b5b81811015612efd57612ef2600082612ec6565b600181019050612edf565b5050565b601f821115612f4257612f1381612de2565b612f1c84612df7565b81016020851015612f2b578190505b612f3f612f3785612df7565b830182612ede565b50505b505050565b600082821c905092915050565b6000612f6560001984600802612f47565b1980831691505092915050565b6000612f7e8383612f54565b9150826002028217905092915050565b612f97826125fb565b67ffffffffffffffff811115612fb057612faf6121ee565b5b612fba8254612db1565b612fc5828285612f01565b600060209050601f831160018114612ff85760008415612fe6578287015190505b612ff08582612f72565b865550613058565b601f19841661300686612de2565b60005b8281101561302e57848901518255600182019150602085019450602081019050613009565b8683101561304b5784890151613047601f891682612f54565b8355505b6001600288020188555050505b505050505050565b600081905092915050565b60008190508160005260206000209050919050565b6000815461308d81612db1565b6130978186613060565b945060018216600081146130b257600181146130c7576130fa565b60ff19831686528115158202860193506130fa565b6130d08561306b565b60005b838110156130f2578154818901526001820191506020810190506130d3565b838801955050505b50505092915050565b600061310f8284613080565b915081905092915050565b600081905092915050565b6000613130826125fb565b61313a818561311a565b935061314a818560208601612617565b80840191505092915050565b60006131628284613125565b915081905092915050565b6000604082019050818103600083015261318781856127a6565b9050818103602083015261319b81846127a6565b90509392505050565b600081546131b181612db1565b6131bb818661311a565b945060018216600081146131d657600181146131eb5761321e565b60ff198316865281151582028601935061321e565b6131f485612de2565b60005b83811015613216578154818901526001820191506020810190506131f7565b838801955050505b50505092915050565b600061323382846131a4565b91508190509291505056fea26469706673582212204873b678d1ef76517213d23dd50830b9ff33b378ff3f7cccb779f2d9150d3c5464736f6c63430008140033",
  "linkReferences": {},
  "deployedLinkReferences": {}
}