{
  "_format": "hh-sol-artifact-1",
  "contractName": "DocumentManagementSystem",
  "sourceName": "contracts/DocumentManagementSystem.sol",
  "abi": [
    {
      "anonymous": false,
      "inputs": [
        {
          "indexed": false,
          "internalType": "string",
          "name": "path",
          "type": "string"
        },
        {
          "indexed": false,
          "internalType": "string",
          "name": "branch",
          "type": "string"
        }
      ],
      "name": "BranchAdded",
      "type": "event"
    },
    {
      "anonymous": false,
      "inputs": [
        {
          "indexed": false,
          "internalType": "uint256",
          "name": "id",
          "type": "uint256"
        },
        {
          "indexed": false,
          "internalType": "string",
          "name": "fileName",
          "type": "string"
        },
        {
          "indexed": false,
          "internalType": "string",
          "name": "folderName",
          "type": "string"
        },
        {
          "indexed": false,
          "internalType": "string",
          "name": "path",
          "type": "string"
        },
        {
          "indexed": false,
          "internalType": "string",
          "name": "ipfsHash",
          "type": "string"
        },
        {
          "indexed": false,
          "internalType": "string",
          "name": "branch",
          "type": "string"
        },
        {
          "indexed": false,
          "internalType": "string",
          "name": "department",
          "type": "string"
        },
        {
          "indexed": false,
          "internalType": "address",
          "name": "uploader",
          "type": "address"
        },
        {
          "indexed": false,
          "internalType": "bool",
          "name": "isPrivate",
          "type": "bool"
        }
      ],
      "name": "FileUploaded",
      "type": "event"
    },
    {
      "inputs": [
        {
          "internalType": "uint256",
          "name": "",
          "type": "uint256"
        }
      ],
      "name": "allPaths",
      "outputs": [
        {
          "internalType": "string",
          "name": "",
          "type": "string"
        }
      ],
      "stateMutability": "view",
      "type": "function"
    },
    {
      "inputs": [
        {
          "internalType": "string",
          "name": "",
          "type": "string"
        }
      ],
      "name": "branchesByPath",
      "outputs": [
        {
          "internalType": "string",
          "name": "name",
          "type": "string"
        }
      ],
      "stateMutability": "view",
      "type": "function"
    },
    {
      "inputs": [
        {
          "internalType": "uint256",
          "name": "_fileId",
          "type": "uint256"
        }
      ],
      "name": "deleteFile",
      "outputs": [],
      "stateMutability": "nonpayable",
      "type": "function"
    },
    {
      "inputs": [],
      "name": "fileCount",
      "outputs": [
        {
          "internalType": "uint256",
          "name": "",
          "type": "uint256"
        }
      ],
      "stateMutability": "view",
      "type": "function"
    },
    {
      "inputs": [
        {
          "internalType": "uint256",
          "name": "",
          "type": "uint256"
        }
      ],
      "name": "files",
      "outputs": [
        {
          "internalType": "uint256",
          "name": "id",
          "type": "uint256"
        },
        {
          "internalType": "string",
          "name": "fileName",
          "type": "string"
        },
        {
          "internalType": "string",
          "name": "folderName",
          "type": "string"
        },
        {
          "internalType": "string",
          "name": "path",
          "type": "string"
        },
        {
          "internalType": "string",
          "name": "ipfsHash",
          "type": "string"
        },
        {
          "internalType": "string",
          "name": "branch",
          "type": "string"
        },
        {
          "internalType": "string",
          "name": "department",
          "type": "string"
        },
        {
          "internalType": "address",
          "name": "uploader",
          "type": "address"
        },
        {
          "internalType": "bool",
          "name": "isPrivate",
          "type": "bool"
        }
      ],
      "stateMutability": "view",
      "type": "function"
    },
    {
      "inputs": [],
      "name": "getAllBranches",
      "outputs": [
        {
          "internalType": "string[]",
          "name": "",
          "type": "string[]"
        }
      ],
      "stateMutability": "view",
      "type": "function"
    },
    {
      "inputs": [
        {
          "internalType": "string",
          "name": "_branch",
          "type": "string"
        }
      ],
      "name": "getDepartmentsByBranch",
      "outputs": [
        {
          "internalType": "string[]",
          "name": "departments",
          "type": "string[]"
        }
      ],
      "stateMutability": "view",
      "type": "function"
    },
    {
      "inputs": [
        {
          "internalType": "string",
          "name": "_branch",
          "type": "string"
        },
        {
          "internalType": "string",
          "name": "_department",
          "type": "string"
        },
        {
          "internalType": "string",
          "name": "_folderName",
          "type": "string"
        }
      ],
      "name": "getFilesByFolder",
      "outputs": [
        {
          "components": [
            {
              "internalType": "uint256",
              "name": "id",
              "type": "uint256"
            },
            {
              "internalType": "string",
              "name": "fileName",
              "type": "string"
            },
            {
              "internalType": "string",
              "name": "folderName",
              "type": "string"
            },
            {
              "internalType": "string",
              "name": "path",
              "type": "string"
            },
            {
              "internalType": "string",
              "name": "ipfsHash",
              "type": "string"
            },
            {
              "internalType": "string",
              "name": "branch",
              "type": "string"
            },
            {
              "internalType": "string",
              "name": "department",
              "type": "string"
            },
            {
              "internalType": "address",
              "name": "uploader",
              "type": "address"
            },
            {
              "internalType": "bool",
              "name": "isPrivate",
              "type": "bool"
            }
          ],
          "internalType": "struct DocumentManagementSystem.File[]",
          "name": "fileDetails",
          "type": "tuple[]"
        }
      ],
      "stateMutability": "view",
      "type": "function"
    },
    {
      "inputs": [
        {
          "internalType": "string",
          "name": "_path",
          "type": "string"
        }
      ],
      "name": "getFilesByPath",
      "outputs": [
        {
          "components": [
            {
              "internalType": "uint256",
              "name": "id",
              "type": "uint256"
            },
            {
              "internalType": "string",
              "name": "fileName",
              "type": "string"
            },
            {
              "internalType": "string",
              "name": "folderName",
              "type": "string"
            },
            {
              "internalType": "string",
              "name": "path",
              "type": "string"
            },
            {
              "internalType": "string",
              "name": "ipfsHash",
              "type": "string"
            },
            {
              "internalType": "string",
              "name": "branch",
              "type": "string"
            },
            {
              "internalType": "string",
              "name": "department",
              "type": "string"
            },
            {
              "internalType": "address",
              "name": "uploader",
              "type": "address"
            },
            {
              "internalType": "bool",
              "name": "isPrivate",
              "type": "bool"
            }
          ],
          "internalType": "struct DocumentManagementSystem.File[]",
          "name": "fileDetails",
          "type": "tuple[]"
        }
      ],
      "stateMutability": "view",
      "type": "function"
    },
    {
      "inputs": [
        {
          "internalType": "string",
          "name": "_branch",
          "type": "string"
        },
        {
          "internalType": "string",
          "name": "_department",
          "type": "string"
        }
      ],
      "name": "getFoldersByDepartment",
      "outputs": [
        {
          "internalType": "string[]",
          "name": "folders",
          "type": "string[]"
        }
      ],
      "stateMutability": "view",
      "type": "function"
    },
    {
      "inputs": [
        {
          "internalType": "string[]",
          "name": "_fileNames",
          "type": "string[]"
        },
        {
          "internalType": "string",
          "name": "_folderName",
          "type": "string"
        },
        {
          "internalType": "string",
          "name": "_path",
          "type": "string"
        },
        {
          "internalType": "string[]",
          "name": "_ipfsHashes",
          "type": "string[]"
        },
        {
          "internalType": "string",
          "name": "_branch",
          "type": "string"
        },
        {
          "internalType": "string",
          "name": "_department",
          "type": "string"
        },
        {
          "internalType": "bool",
          "name": "_isPrivate",
          "type": "bool"
        }
      ],
      "name": "uploadFiles",
      "outputs": [],
      "stateMutability": "nonpayable",
      "type": "function"
    }
  ],
  "bytecode": "0x608060405234801561001057600080fd5b506136b9806100206000396000f3fe608060405234801561001057600080fd5b50600436106100a85760003560e01c806345070102116100715780634507010214610165578063bb3c036714610195578063c5b42006146101c5578063f0d81590146101e1578063f4c714b414610211578063f6f58b8e14610249576100a8565b8062120c29146100ad5780630dc1da4e146100c9578063368b40d8146100f95780633c0eadb0146101295780634395351914610147575b600080fd5b6100c760048036038101906100c291906126b2565b610279565b005b6100e360048036038101906100de91906127fc565b6106bc565b6040516100f09190612986565b60405180910390f35b610113600480360381019061010e91906129de565b610abb565b6040516101209190612a55565b60405180910390f35b610131610b67565b60405161013e9190612986565b60405180910390f35b61014f610df0565b60405161015c9190612a86565b60405180910390f35b61017f600480360381019061017a9190612aa1565b610df6565b60405161018c9190612986565b60405180910390f35b6101af60048036038101906101aa91906127fc565b6110e0565b6040516101bc9190612d22565b60405180910390f35b6101df60048036038101906101da91906129de565b611638565b005b6101fb60048036038101906101f691906127fc565b61182a565b6040516102089190612a55565b60405180910390f35b61022b600480360381019061022691906129de565b6118e6565b60405161024099989796959493929190612d62565b60405180910390f35b610263600480360381019061025e9190612e19565b611c91565b6040516102709190612d22565b60405180910390f35b83518751146102bd576040517f08c379a00000000000000000000000000000000000000000000000000000000081526004016102b490612f32565b60405180910390fd5b60005b875181101561050c57600360008154809291906102dc90612f81565b9190505550604051806101200160405280600354815260200189838151811061030857610307612fc9565b5b6020026020010151815260200188815260200187815260200186838151811061033457610333612fc9565b5b602002602001015181526020018581526020018481526020013373ffffffffffffffffffffffffffffffffffffffff16815260200183151581525060008060035481526020019081526020016000206000820151816000015560208201518160010190816103a29190613204565b5060408201518160020190816103b89190613204565b5060608201518160030190816103ce9190613204565b5060808201518160040190816103e49190613204565b5060a08201518160050190816103fa9190613204565b5060c08201518160060190816104109190613204565b5060e08201518160070160006101000a81548173ffffffffffffffffffffffffffffffffffffffff021916908373ffffffffffffffffffffffffffffffffffffffff1602179055506101008201518160070160146101000a81548160ff0219169083151502179055509050507fa3d80337e3cf6fc1a4f03c067968b1b46a41a176c21c9d896909ff557aed44546003548983815181106104b3576104b2612fc9565b5b602002602001015189898986815181106104d0576104cf612fc9565b5b60200260200101518989338a6040516104f199989796959493929190612d62565b60405180910390a1808061050490612f81565b9150506102c0565b506000805b60028054905081101561057a5786805190602001206002828154811061053a57610539612fc9565b5b906000526020600020016040516105519190613379565b604051809103902003610567576001915061057a565b808061057290612f81565b915050610511565b50806105b6576002869080600181540180825580915050600190039060005260206000200160009091909190915090816105b49190613204565b505b60006001876040516105c891906133cc565b90815260200160405180910390206001018054905014806105f057506105ee86856122d9565b155b156106b2578360018760405161060691906133cc565b908152602001604051809103902060000190816106239190613204565b5060018660405161063491906133cc565b9081526020016040518091039020600101839080600181540180825580915050600190039060005260206000200160009091909190915090816106779190613204565b507f39ba59c49b01df8281d6c94c991ee209516bf77c73c1d5b68a4dd3ebb16ad30786856040516106a99291906133e3565b60405180910390a15b5050505050505050565b6060600060035467ffffffffffffffff8111156106dc576106db612464565b5b60405190808252806020026020018201604052801561070f57816020015b60608152602001906001900390816106fa5790505b5090506000805b600280549050811015610a0b57600060016002838154811061073b5761073a612fc9565b5b90600052602060002001604051610752919061349d565b9081526020016040518091039020600001805461076e90613027565b80601f016020809104026020016040519081016040528092919081815260200182805461079a90613027565b80156107e75780601f106107bc576101008083540402835291602001916107e7565b820191906000526020600020905b8154815290600101906020018083116107ca57829003601f168201915b5050505050905085805190602001208180519060200120036109f757600060016002848154811061081b5761081a612fc9565b5b90600052602060002001604051610832919061349d565b9081526020016040518091039020600101805480602002602001604051908101604052809291908181526020016000905b8282101561090f57838290600052602060002001805461088290613027565b80601f01602080910402602001604051908101604052809291908181526020018280546108ae90613027565b80156108fb5780601f106108d0576101008083540402835291602001916108fb565b820191906000526020600020905b8154815290600101906020018083116108de57829003601f168201915b505050505081526020019060010190610863565b50505050905060005b81518110156109f4576000805b86811015610992578383815181106109405761093f612fc9565b5b60200260200101518051906020012088828151811061096257610961612fc9565b5b6020026020010151805190602001200361097f5760019150610992565b808061098a90612f81565b915050610925565b50806109e0578282815181106109ab576109aa612fc9565b5b60200260200101518787815181106109c6576109c5612fc9565b5b602002602001018190525085806109dc90612f81565b9650505b5080806109ec90612f81565b915050610918565b50505b508080610a0390612f81565b915050610716565b508067ffffffffffffffff811115610a2657610a25612464565b5b604051908082528060200260200182016040528015610a5957816020015b6060815260200190600190039081610a445790505b50925060005b81811015610ab357828181518110610a7a57610a79612fc9565b5b6020026020010151848281518110610a9557610a94612fc9565b5b60200260200101819052508080610aab90612f81565b915050610a5f565b505050919050565b60028181548110610acb57600080fd5b906000526020600020016000915090508054610ae690613027565b80601f0160208091040260200160405190810160405280929190818152602001828054610b1290613027565b8015610b5f5780601f10610b3457610100808354040283529160200191610b5f565b820191906000526020600020905b815481529060010190602001808311610b4257829003601f168201915b505050505081565b6060600060028054905067ffffffffffffffff811115610b8a57610b89612464565b5b604051908082528060200260200182016040528015610bbd57816020015b6060815260200190600190039081610ba85790505b5090506000805b600280549050811015610d3c576000600160028381548110610be957610be8612fc9565b5b90600052602060002001604051610c00919061349d565b90815260200160405180910390206000018054610c1c90613027565b80601f0160208091040260200160405190810160405280929190818152602001828054610c4890613027565b8015610c955780601f10610c6a57610100808354040283529160200191610c95565b820191906000526020600020905b815481529060010190602001808311610c7857829003601f168201915b505050505090506000805b84811015610cf3578280519060200120868281518110610cc357610cc2612fc9565b5b60200260200101518051906020012003610ce05760019150610cf3565b8080610ceb90612f81565b915050610ca0565b5080610d275781858581518110610d0d57610d0c612fc9565b5b60200260200101819052508380610d2390612f81565b9450505b50508080610d3490612f81565b915050610bc4565b5060008167ffffffffffffffff811115610d5957610d58612464565b5b604051908082528060200260200182016040528015610d8c57816020015b6060815260200190600190039081610d775790505b50905060005b82811015610de657838181518110610dad57610dac612fc9565b5b6020026020010151828281518110610dc857610dc7612fc9565b5b60200260200101819052508080610dde90612f81565b915050610d92565b5080935050505090565b60035481565b6060600060035467ffffffffffffffff811115610e1657610e15612464565b5b604051908082528060200260200182016040528015610e4957816020015b6060815260200190600190039081610e345790505b509050600080600190505b600354811161102f578580519060200120600080838152602001908152602001600020600501604051610e879190613379565b6040518091039020148015610ecb57508480519060200120600080838152602001908152602001600020600601604051610ec19190613379565b6040518091039020145b1561101c576000805b83811015610f4957600080848152602001908152602001600020600201604051610efe9190613379565b6040518091039020858281518110610f1957610f18612fc9565b5b60200260200101518051906020012003610f365760019150610f49565b8080610f4190612f81565b915050610ed4565b508061101a576000808381526020019081526020016000206002018054610f6f90613027565b80601f0160208091040260200160405190810160405280929190818152602001828054610f9b90613027565b8015610fe85780601f10610fbd57610100808354040283529160200191610fe8565b820191906000526020600020905b815481529060010190602001808311610fcb57829003601f168201915b505050505084848151811061100057610fff612fc9565b5b6020026020010181905250828061101690612f81565b9350505b505b808061102790612f81565b915050610e54565b508067ffffffffffffffff81111561104a57611049612464565b5b60405190808252806020026020018201604052801561107d57816020015b60608152602001906001900390816110685790505b50925060005b818110156110d75782818151811061109e5761109d612fc9565b5b60200260200101518482815181106110b9576110b8612fc9565b5b602002602001018190525080806110cf90612f81565b915050611083565b50505092915050565b6060600080600190505b600354811161114c57838051906020012060008083815260200190815260200160002060030160405161111d9190613379565b60405180910390200361113957818061113590612f81565b9250505b808061114490612f81565b9150506110ea565b508067ffffffffffffffff81111561116757611166612464565b5b6040519080825280602002602001820160405280156111a057816020015b61118d612379565b8152602001906001900390816111855790505b509150600080600190505b60035481116116305784805190602001206000808381526020019081526020016000206003016040516111de9190613379565b60405180910390200361161d57600080828152602001908152602001600020604051806101200160405290816000820154815260200160018201805461122390613027565b80601f016020809104026020016040519081016040528092919081815260200182805461124f90613027565b801561129c5780601f106112715761010080835404028352916020019161129c565b820191906000526020600020905b81548152906001019060200180831161127f57829003601f168201915b505050505081526020016002820180546112b590613027565b80601f01602080910402602001604051908101604052809291908181526020018280546112e190613027565b801561132e5780601f106113035761010080835404028352916020019161132e565b820191906000526020600020905b81548152906001019060200180831161131157829003601f168201915b5050505050815260200160038201805461134790613027565b80601f016020809104026020016040519081016040528092919081815260200182805461137390613027565b80156113c05780601f10611395576101008083540402835291602001916113c0565b820191906000526020600020905b8154815290600101906020018083116113a357829003601f168201915b505050505081526020016004820180546113d990613027565b80601f016020809104026020016040519081016040528092919081815260200182805461140590613027565b80156114525780601f1061142757610100808354040283529160200191611452565b820191906000526020600020905b81548152906001019060200180831161143557829003601f168201915b5050505050815260200160058201805461146b90613027565b80601f016020809104026020016040519081016040528092919081815260200182805461149790613027565b80156114e45780601f106114b9576101008083540402835291602001916114e4565b820191906000526020600020905b8154815290600101906020018083116114c757829003601f168201915b505050505081526020016006820180546114fd90613027565b80601f016020809104026020016040519081016040528092919081815260200182805461152990613027565b80156115765780601f1061154b57610100808354040283529160200191611576565b820191906000526020600020905b81548152906001019060200180831161155957829003601f168201915b505050505081526020016007820160009054906101000a900473ffffffffffffffffffffffffffffffffffffffff1673ffffffffffffffffffffffffffffffffffffffff1673ffffffffffffffffffffffffffffffffffffffff1681526020016007820160149054906101000a900460ff16151515158152505084838151811061160357611602612fc9565b5b6020026020010181905250818061161990612f81565b9250505b808061162890612f81565b9150506111ab565b505050919050565b60008060008381526020019081526020016000206000015403611690576040517f08c379a000000000000000000000000000000000000000000000000000000000815260040161168790613500565b60405180910390fd5b3373ffffffffffffffffffffffffffffffffffffffff1660008083815260200190815260200160002060070160009054906101000a900473ffffffffffffffffffffffffffffffffffffffff1673ffffffffffffffffffffffffffffffffffffffff1614611733576040517f08c379a000000000000000000000000000000000000000000000000000000000815260040161172a90613592565b60405180910390fd5b60008082815260200190815260200160002060008082016000905560018201600061175e91906123dd565b60028201600061176e91906123dd565b60038201600061177e91906123dd565b60048201600061178e91906123dd565b60058201600061179e91906123dd565b6006820160006117ae91906123dd565b6007820160006101000a81549073ffffffffffffffffffffffffffffffffffffffff02191690556007820160146101000a81549060ff021916905550507fa3d80337e3cf6fc1a4f03c067968b1b46a41a176c21c9d896909ff557aed44548160008060405161181f939291906135d8565b60405180910390a150565b60018180516020810182018051848252602083016020850120818352809550505050505060009150905080600001805461186390613027565b80601f016020809104026020016040519081016040528092919081815260200182805461188f90613027565b80156118dc5780601f106118b1576101008083540402835291602001916118dc565b820191906000526020600020905b8154815290600101906020018083116118bf57829003601f168201915b5050505050905081565b600060205280600052604060002060009150905080600001549080600101805461190f90613027565b80601f016020809104026020016040519081016040528092919081815260200182805461193b90613027565b80156119885780601f1061195d57610100808354040283529160200191611988565b820191906000526020600020905b81548152906001019060200180831161196b57829003601f168201915b50505050509080600201805461199d90613027565b80601f01602080910402602001604051908101604052809291908181526020018280546119c990613027565b8015611a165780601f106119eb57610100808354040283529160200191611a16565b820191906000526020600020905b8154815290600101906020018083116119f957829003601f168201915b505050505090806003018054611a2b90613027565b80601f0160208091040260200160405190810160405280929190818152602001828054611a5790613027565b8015611aa45780601f10611a7957610100808354040283529160200191611aa4565b820191906000526020600020905b815481529060010190602001808311611a8757829003601f168201915b505050505090806004018054611ab990613027565b80601f0160208091040260200160405190810160405280929190818152602001828054611ae590613027565b8015611b325780601f10611b0757610100808354040283529160200191611b32565b820191906000526020600020905b815481529060010190602001808311611b1557829003601f168201915b505050505090806005018054611b4790613027565b80601f0160208091040260200160405190810160405280929190818152602001828054611b7390613027565b8015611bc05780601f10611b9557610100808354040283529160200191611bc0565b820191906000526020600020905b815481529060010190602001808311611ba357829003601f168201915b505050505090806006018054611bd590613027565b80601f0160208091040260200160405190810160405280929190818152602001828054611c0190613027565b8015611c4e5780601f10611c2357610100808354040283529160200191611c4e565b820191906000526020600020905b815481529060010190602001808311611c3157829003601f168201915b5050505050908060070160009054906101000a900473ffffffffffffffffffffffffffffffffffffffff16908060070160149054906101000a900460ff16905089565b6060600080600190505b6003548111611d74578580519060200120600080838152602001908152602001600020600501604051611cce9190613379565b6040518091039020148015611d1257508480519060200120600080838152602001908152602001600020600601604051611d089190613379565b6040518091039020145b8015611d4d57508380519060200120600080838152602001908152602001600020600201604051611d439190613379565b6040518091039020145b15611d61578180611d5d90612f81565b9250505b8080611d6c90612f81565b915050611c9b565b508067ffffffffffffffff811115611d8f57611d8e612464565b5b604051908082528060200260200182016040528015611dc857816020015b611db5612379565b815260200190600190039081611dad5790505b509150600080600190505b60035481116122cf578680519060200120600080838152602001908152602001600020600501604051611e069190613379565b6040518091039020148015611e4a57508580519060200120600080838152602001908152602001600020600601604051611e409190613379565b6040518091039020145b8015611e8557508480519060200120600080838152602001908152602001600020600201604051611e7b9190613379565b6040518091039020145b156122bc576000808281526020019081526020016000206040518061012001604052908160008201548152602001600182018054611ec290613027565b80601f0160208091040260200160405190810160405280929190818152602001828054611eee90613027565b8015611f3b5780601f10611f1057610100808354040283529160200191611f3b565b820191906000526020600020905b815481529060010190602001808311611f1e57829003601f168201915b50505050508152602001600282018054611f5490613027565b80601f0160208091040260200160405190810160405280929190818152602001828054611f8090613027565b8015611fcd5780601f10611fa257610100808354040283529160200191611fcd565b820191906000526020600020905b815481529060010190602001808311611fb057829003601f168201915b50505050508152602001600382018054611fe690613027565b80601f016020809104026020016040519081016040528092919081815260200182805461201290613027565b801561205f5780601f106120345761010080835404028352916020019161205f565b820191906000526020600020905b81548152906001019060200180831161204257829003601f168201915b5050505050815260200160048201805461207890613027565b80601f01602080910402602001604051908101604052809291908181526020018280546120a490613027565b80156120f15780601f106120c6576101008083540402835291602001916120f1565b820191906000526020600020905b8154815290600101906020018083116120d457829003601f168201915b5050505050815260200160058201805461210a90613027565b80601f016020809104026020016040519081016040528092919081815260200182805461213690613027565b80156121835780601f1061215857610100808354040283529160200191612183565b820191906000526020600020905b81548152906001019060200180831161216657829003601f168201915b5050505050815260200160068201805461219c90613027565b80601f01602080910402602001604051908101604052809291908181526020018280546121c890613027565b80156122155780601f106121ea57610100808354040283529160200191612215565b820191906000526020600020905b8154815290600101906020018083116121f857829003601f168201915b505050505081526020016007820160009054906101000a900473ffffffffffffffffffffffffffffffffffffffff1673ffffffffffffffffffffffffffffffffffffffff1673ffffffffffffffffffffffffffffffffffffffff1681526020016007820160149054906101000a900460ff1615151515815250508483815181106122a2576122a1612fc9565b5b602002602001018190525081806122b890612f81565b9250505b80806122c790612f81565b915050611dd3565b5050509392505050565b600080600090505b6001846040516122f191906133cc565b90815260200160405180910390206001018054905081101561236d57828051906020012060018560405161232591906133cc565b90815260200160405180910390206000016040516123439190613379565b60405180910390200361235a576001915050612373565b808061236590612f81565b9150506122e1565b50600090505b92915050565b60405180610120016040528060008152602001606081526020016060815260200160608152602001606081526020016060815260200160608152602001600073ffffffffffffffffffffffffffffffffffffffff1681526020016000151581525090565b5080546123e990613027565b6000825580601f106123fb575061241a565b601f016020900490600052602060002090810190612419919061241d565b5b50565b5b8082111561243657600081600090555060010161241e565b5090565b6000604051905090565b600080fd5b600080fd5b600080fd5b6000601f19601f8301169050919050565b7f4e487b7100000000000000000000000000000000000000000000000000000000600052604160045260246000fd5b61249c82612453565b810181811067ffffffffffffffff821117156124bb576124ba612464565b5b80604052505050565b60006124ce61243a565b90506124da8282612493565b919050565b600067ffffffffffffffff8211156124fa576124f9612464565b5b602082029050602081019050919050565b600080fd5b600080fd5b600067ffffffffffffffff8211156125305761252f612464565b5b61253982612453565b9050602081019050919050565b82818337600083830152505050565b600061256861256384612515565b6124c4565b90508281526020810184848401111561258457612583612510565b5b61258f848285612546565b509392505050565b600082601f8301126125ac576125ab61244e565b5b81356125bc848260208601612555565b91505092915050565b60006125d86125d3846124df565b6124c4565b905080838252602082019050602084028301858111156125fb576125fa61250b565b5b835b8181101561264257803567ffffffffffffffff8111156126205761261f61244e565b5b80860161262d8982612597565b855260208501945050506020810190506125fd565b5050509392505050565b600082601f8301126126615761266061244e565b5b81356126718482602086016125c5565b91505092915050565b60008115159050919050565b61268f8161267a565b811461269a57600080fd5b50565b6000813590506126ac81612686565b92915050565b600080600080600080600060e0888a0312156126d1576126d0612444565b5b600088013567ffffffffffffffff8111156126ef576126ee612449565b5b6126fb8a828b0161264c565b975050602088013567ffffffffffffffff81111561271c5761271b612449565b5b6127288a828b01612597565b965050604088013567ffffffffffffffff81111561274957612748612449565b5b6127558a828b01612597565b955050606088013567ffffffffffffffff81111561277657612775612449565b5b6127828a828b0161264c565b945050608088013567ffffffffffffffff8111156127a3576127a2612449565b5b6127af8a828b01612597565b93505060a088013567ffffffffffffffff8111156127d0576127cf612449565b5b6127dc8a828b01612597565b92505060c06127ed8a828b0161269d565b91505092959891949750929550565b60006020828403121561281257612811612444565b5b600082013567ffffffffffffffff8111156128305761282f612449565b5b61283c84828501612597565b91505092915050565b600081519050919050565b600082825260208201905092915050565b6000819050602082019050919050565b600081519050919050565b600082825260208201905092915050565b60005b838110156128ab578082015181840152602081019050612890565b60008484015250505050565b60006128c282612871565b6128cc818561287c565b93506128dc81856020860161288d565b6128e581612453565b840191505092915050565b60006128fc83836128b7565b905092915050565b6000602082019050919050565b600061291c82612845565b6129268185612850565b93508360208202850161293885612861565b8060005b85811015612974578484038952815161295585826128f0565b945061296083612904565b925060208a0199505060018101905061293c565b50829750879550505050505092915050565b600060208201905081810360008301526129a08184612911565b905092915050565b6000819050919050565b6129bb816129a8565b81146129c657600080fd5b50565b6000813590506129d8816129b2565b92915050565b6000602082840312156129f4576129f3612444565b5b6000612a02848285016129c9565b91505092915050565b600082825260208201905092915050565b6000612a2782612871565b612a318185612a0b565b9350612a4181856020860161288d565b612a4a81612453565b840191505092915050565b60006020820190508181036000830152612a6f8184612a1c565b905092915050565b612a80816129a8565b82525050565b6000602082019050612a9b6000830184612a77565b92915050565b60008060408385031215612ab857612ab7612444565b5b600083013567ffffffffffffffff811115612ad657612ad5612449565b5b612ae285828601612597565b925050602083013567ffffffffffffffff811115612b0357612b02612449565b5b612b0f85828601612597565b9150509250929050565b600081519050919050565b600082825260208201905092915050565b6000819050602082019050919050565b612b4e816129a8565b82525050565b600073ffffffffffffffffffffffffffffffffffffffff82169050919050565b6000612b7f82612b54565b9050919050565b612b8f81612b74565b82525050565b612b9e8161267a565b82525050565b600061012083016000830151612bbd6000860182612b45565b5060208301518482036020860152612bd582826128b7565b91505060408301518482036040860152612bef82826128b7565b91505060608301518482036060860152612c0982826128b7565b91505060808301518482036080860152612c2382826128b7565b91505060a083015184820360a0860152612c3d82826128b7565b91505060c083015184820360c0860152612c5782826128b7565b91505060e0830151612c6c60e0860182612b86565b50610100830151612c81610100860182612b95565b508091505092915050565b6000612c988383612ba4565b905092915050565b6000602082019050919050565b6000612cb882612b19565b612cc28185612b24565b935083602082028501612cd485612b35565b8060005b85811015612d105784840389528151612cf18582612c8c565b9450612cfc83612ca0565b925060208a01995050600181019050612cd8565b50829750879550505050505092915050565b60006020820190508181036000830152612d3c8184612cad565b905092915050565b612d4d81612b74565b82525050565b612d5c8161267a565b82525050565b600061012082019050612d78600083018c612a77565b8181036020830152612d8a818b612a1c565b90508181036040830152612d9e818a612a1c565b90508181036060830152612db28189612a1c565b90508181036080830152612dc68188612a1c565b905081810360a0830152612dda8187612a1c565b905081810360c0830152612dee8186612a1c565b9050612dfd60e0830185612d44565b612e0b610100830184612d53565b9a9950505050505050505050565b600080600060608486031215612e3257612e31612444565b5b600084013567ffffffffffffffff811115612e5057612e4f612449565b5b612e5c86828701612597565b935050602084013567ffffffffffffffff811115612e7d57612e7c612449565b5b612e8986828701612597565b925050604084013567ffffffffffffffff811115612eaa57612ea9612449565b5b612eb686828701612597565b9150509250925092565b7f46696c65206e616d657320616e6420495046532068617368657320617272617960008201527f73206d7573742068617665207468652073616d65206c656e6774680000000000602082015250565b6000612f1c603b83612a0b565b9150612f2782612ec0565b604082019050919050565b60006020820190508181036000830152612f4b81612f0f565b9050919050565b7f4e487b7100000000000000000000000000000000000000000000000000000000600052601160045260246000fd5b6000612f8c826129a8565b91507fffffffffffffffffffffffffffffffffffffffffffffffffffffffffffffffff8203612fbe57612fbd612f52565b5b600182019050919050565b7f4e487b7100000000000000000000000000000000000000000000000000000000600052603260045260246000fd5b7f4e487b7100000000000000000000000000000000000000000000000000000000600052602260045260246000fd5b6000600282049050600182168061303f57607f821691505b60208210810361305257613051612ff8565b5b50919050565b60008190508160005260206000209050919050565b60006020601f8301049050919050565b600082821b905092915050565b6000600883026130ba7fffffffffffffffffffffffffffffffffffffffffffffffffffffffffffffffff8261307d565b6130c4868361307d565b95508019841693508086168417925050509392505050565b6000819050919050565b60006131016130fc6130f7846129a8565b6130dc565b6129a8565b9050919050565b6000819050919050565b61311b836130e6565b61312f61312782613108565b84845461308a565b825550505050565b600090565b613144613137565b61314f818484613112565b505050565b5b818110156131735761316860008261313c565b600181019050613155565b5050565b601f8211156131b85761318981613058565b6131928461306d565b810160208510156131a1578190505b6131b56131ad8561306d565b830182613154565b50505b505050565b600082821c905092915050565b60006131db600019846008026131bd565b1980831691505092915050565b60006131f483836131ca565b9150826002028217905092915050565b61320d82612871565b67ffffffffffffffff81111561322657613225612464565b5b6132308254613027565b61323b828285613177565b600060209050601f83116001811461326e576000841561325c578287015190505b61326685826131e8565b8655506132ce565b601f19841661327c86613058565b60005b828110156132a45784890151825560018201915060208501945060208101905061327f565b868310156132c157848901516132bd601f8916826131ca565b8355505b6001600288020188555050505b505050505050565b600081905092915050565b60008190508160005260206000209050919050565b6000815461330381613027565b61330d81866132d6565b94506001821660008114613328576001811461333d57613370565b60ff1983168652811515820286019350613370565b613346856132e1565b60005b8381101561336857815481890152600182019150602081019050613349565b838801955050505b50505092915050565b600061338582846132f6565b915081905092915050565b600081905092915050565b60006133a682612871565b6133b08185613390565b93506133c081856020860161288d565b80840191505092915050565b60006133d8828461339b565b915081905092915050565b600060408201905081810360008301526133fd8185612a1c565b905081810360208301526134118184612a1c565b90509392505050565b6000815461342781613027565b6134318186613390565b9450600182166000811461344c576001811461346157613494565b60ff1983168652811515820286019350613494565b61346a85613058565b60005b8381101561348c5781548189015260018201915060208101905061346d565b838801955050505b50505092915050565b60006134a9828461341a565b915081905092915050565b7f46696c6520646f6573206e6f7420657869737400000000000000000000000000600082015250565b60006134ea601383612a0b565b91506134f5826134b4565b602082019050919050565b60006020820190508181036000830152613519816134dd565b9050919050565b7f4f6e6c79207468652075706c6f616465722063616e2064656c6574652074686960008201527f732066696c650000000000000000000000000000000000000000000000000000602082015250565b600061357c602683612a0b565b915061358782613520565b604082019050919050565b600060208201905081810360008301526135ab8161356f565b9050919050565b50565b60006135c2600083612a0b565b91506135cd826135b2565b600082019050919050565b6000610120820190506135ee6000830186612a77565b81810360208301526135ff816135b5565b90508181036040830152613612816135b5565b90508181036060830152613625816135b5565b90508181036080830152613638816135b5565b905081810360a083015261364b816135b5565b905081810360c083015261365e816135b5565b905061366d60e0830185612d44565b61367b610100830184612d53565b94935050505056fea26469706673582212201b21b03d39e0acd877e2e11788411d2c22637caf774193706b99ce8b0c91664c64736f6c63430008140033",
  "linkReferences": {},
  "deployedLinkReferences": {}
}