{
  "_format": "hh-sol-artifact-1",
  "contractName": "DocumentManagementSystem",
  "sourceName": "contracts/DocumentManagementSystem.sol",
  "abi": [
    {
      "anonymous": false,
      "inputs": [
        {
          "indexed": false,
          "internalType": "string",
          "name": "path",
          "type": "string"
        },
        {
          "indexed": false,
          "internalType": "string",
          "name": "branch",
          "type": "string"
        }
      ],
      "name": "BranchAdded",
      "type": "event"
    },
    {
      "anonymous": false,
      "inputs": [
        {
          "indexed": false,
          "internalType": "uint256",
          "name": "id",
          "type": "uint256"
        },
        {
          "indexed": false,
          "internalType": "string",
          "name": "fileName",
          "type": "string"
        },
        {
          "indexed": false,
          "internalType": "string",
          "name": "folderName",
          "type": "string"
        },
        {
          "indexed": false,
          "internalType": "string",
          "name": "path",
          "type": "string"
        },
        {
          "indexed": false,
          "internalType": "string",
          "name": "ipfsHash",
          "type": "string"
        },
        {
          "indexed": false,
          "internalType": "string",
          "name": "branch",
          "type": "string"
        },
        {
          "indexed": false,
          "internalType": "string",
          "name": "department",
          "type": "string"
        },
        {
          "indexed": false,
          "internalType": "address",
          "name": "uploader",
          "type": "address"
        },
        {
          "indexed": false,
          "internalType": "bool",
          "name": "isPrivate",
          "type": "bool"
        }
      ],
      "name": "FileUploaded",
      "type": "event"
    },
    {
      "inputs": [
        {
          "internalType": "uint256",
          "name": "",
          "type": "uint256"
        }
      ],
      "name": "allPaths",
      "outputs": [
        {
          "internalType": "string",
          "name": "",
          "type": "string"
        }
      ],
      "stateMutability": "view",
      "type": "function"
    },
    {
      "inputs": [
        {
          "internalType": "string",
          "name": "",
          "type": "string"
        }
      ],
      "name": "branchesByPath",
      "outputs": [
        {
          "internalType": "string",
          "name": "name",
          "type": "string"
        }
      ],
      "stateMutability": "view",
      "type": "function"
    },
    {
      "inputs": [],
      "name": "fileCount",
      "outputs": [
        {
          "internalType": "uint256",
          "name": "",
          "type": "uint256"
        }
      ],
      "stateMutability": "view",
      "type": "function"
    },
    {
      "inputs": [
        {
          "internalType": "uint256",
          "name": "",
          "type": "uint256"
        }
      ],
      "name": "files",
      "outputs": [
        {
          "internalType": "uint256",
          "name": "id",
          "type": "uint256"
        },
        {
          "internalType": "string",
          "name": "fileName",
          "type": "string"
        },
        {
          "internalType": "string",
          "name": "folderName",
          "type": "string"
        },
        {
          "internalType": "string",
          "name": "path",
          "type": "string"
        },
        {
          "internalType": "string",
          "name": "ipfsHash",
          "type": "string"
        },
        {
          "internalType": "string",
          "name": "branch",
          "type": "string"
        },
        {
          "internalType": "string",
          "name": "department",
          "type": "string"
        },
        {
          "internalType": "address",
          "name": "uploader",
          "type": "address"
        },
        {
          "internalType": "bool",
          "name": "isPrivate",
          "type": "bool"
        }
      ],
      "stateMutability": "view",
      "type": "function"
    },
    {
      "inputs": [],
      "name": "getAllBranches",
      "outputs": [
        {
          "internalType": "string[]",
          "name": "",
          "type": "string[]"
        }
      ],
      "stateMutability": "view",
      "type": "function"
    },
    {
      "inputs": [
        {
          "internalType": "string",
          "name": "_path",
          "type": "string"
        },
        {
          "internalType": "string",
          "name": "_branch",
          "type": "string"
        }
      ],
      "name": "getDepartmentsByBranch",
      "outputs": [
        {
          "internalType": "string[]",
          "name": "departments",
          "type": "string[]"
        }
      ],
      "stateMutability": "view",
      "type": "function"
    },
    {
      "inputs": [
        {
          "internalType": "string",
          "name": "_path",
          "type": "string"
        },
        {
          "internalType": "string",
          "name": "_branch",
          "type": "string"
        },
        {
          "internalType": "string",
          "name": "_department",
          "type": "string"
        }
      ],
      "name": "getFilesByDepartment",
      "outputs": [
        {
          "components": [
            {
              "internalType": "uint256",
              "name": "id",
              "type": "uint256"
            },
            {
              "internalType": "string",
              "name": "fileName",
              "type": "string"
            },
            {
              "internalType": "string",
              "name": "folderName",
              "type": "string"
            },
            {
              "internalType": "string",
              "name": "path",
              "type": "string"
            },
            {
              "internalType": "string",
              "name": "ipfsHash",
              "type": "string"
            },
            {
              "internalType": "string",
              "name": "branch",
              "type": "string"
            },
            {
              "internalType": "string",
              "name": "department",
              "type": "string"
            },
            {
              "internalType": "address",
              "name": "uploader",
              "type": "address"
            },
            {
              "internalType": "bool",
              "name": "isPrivate",
              "type": "bool"
            }
          ],
          "internalType": "struct DocumentManagementSystem.File[]",
          "name": "fileDetails",
          "type": "tuple[]"
        }
      ],
      "stateMutability": "view",
      "type": "function"
    },
    {
      "inputs": [
        {
          "internalType": "string",
          "name": "_path",
          "type": "string"
        }
      ],
      "name": "getFilesByPath",
      "outputs": [
        {
          "components": [
            {
              "internalType": "uint256",
              "name": "id",
              "type": "uint256"
            },
            {
              "internalType": "string",
              "name": "fileName",
              "type": "string"
            },
            {
              "internalType": "string",
              "name": "folderName",
              "type": "string"
            },
            {
              "internalType": "string",
              "name": "path",
              "type": "string"
            },
            {
              "internalType": "string",
              "name": "ipfsHash",
              "type": "string"
            },
            {
              "internalType": "string",
              "name": "branch",
              "type": "string"
            },
            {
              "internalType": "string",
              "name": "department",
              "type": "string"
            },
            {
              "internalType": "address",
              "name": "uploader",
              "type": "address"
            },
            {
              "internalType": "bool",
              "name": "isPrivate",
              "type": "bool"
            }
          ],
          "internalType": "struct DocumentManagementSystem.File[]",
          "name": "fileDetails",
          "type": "tuple[]"
        }
      ],
      "stateMutability": "view",
      "type": "function"
    },
    {
      "inputs": [
        {
          "internalType": "string",
          "name": "_fileName",
          "type": "string"
        },
        {
          "internalType": "string",
          "name": "_folderName",
          "type": "string"
        },
        {
          "internalType": "string",
          "name": "_path",
          "type": "string"
        },
        {
          "internalType": "string",
          "name": "_ipfsHash",
          "type": "string"
        },
        {
          "internalType": "string",
          "name": "_branch",
          "type": "string"
        },
        {
          "internalType": "string",
          "name": "_department",
          "type": "string"
        },
        {
          "internalType": "bool",
          "name": "_isPrivate",
          "type": "bool"
        }
      ],
      "name": "uploadFile",
      "outputs": [],
      "stateMutability": "nonpayable",
      "type": "function"
    }
  ],
  "bytecode": "0x6080604052348015600f57600080fd5b50612ac88061001f6000396000f3fe608060405234801561001057600080fd5b50600436106100935760003560e01c8063bb3c036711610066578063bb3c036714610120578063f0d8159014610150578063f411c74014610180578063f4c714b4146101b0578063fd8a31a0146101e857610093565b80630129103314610098578063368b40d8146100b45780633c0eadb0146100e45780634395351914610102575b600080fd5b6100b260048036038101906100ad9190611c82565b610218565b005b6100ce60048036038101906100c99190611e02565b610589565b6040516100db9190611eae565b60405180910390f35b6100ec610635565b6040516100f99190611fdc565b60405180910390f35b61010a61086c565b604051610117919061200d565b60405180910390f35b61013a60048036038101906101359190612028565b610872565b604051610147919061227a565b60405180910390f35b61016a60048036038101906101659190612028565b610dca565b6040516101779190611eae565b60405180910390f35b61019a6004803603810190610195919061229c565b610e86565b6040516101a7919061227a565b60405180910390f35b6101ca60048036038101906101c59190611e02565b6114ce565b6040516101df99989796959493929190612361565b60405180910390f35b61020260048036038101906101fd9190612418565b611879565b60405161020f9190611fdc565b60405180910390f35b6003600081548092919061022b906124bf565b919050555060405180610120016040528060035481526020018881526020018781526020018681526020018581526020018481526020018381526020013373ffffffffffffffffffffffffffffffffffffffff16815260200182151581525060008060035481526020019081526020016000206000820151816000015560208201518160010190816102bd9190612713565b5060408201518160020190816102d39190612713565b5060608201518160030190816102e99190612713565b5060808201518160040190816102ff9190612713565b5060a08201518160050190816103159190612713565b5060c082015181600601908161032b9190612713565b5060e08201518160070160006101000a81548173ffffffffffffffffffffffffffffffffffffffff021916908373ffffffffffffffffffffffffffffffffffffffff1602179055506101008201518160070160146101000a81548160ff0219169083151502179055509050506000805b6002805490508110156103fe578680519060200120600282815481106103c4576103c36127e5565b5b906000526020600020016040516103db91906128b7565b6040518091039020036103f157600191506103fe565b808060010191505061039b565b508061043a576002869080600181540180825580915050600190039060005260206000200160009091909190915090816104389190612713565b505b600060018760405161044c919061290a565b9081526020016040518091039020600101805490501480610474575061047286856119f2565b155b15610536578360018760405161048a919061290a565b908152602001604051809103902060000190816104a79190612713565b506001866040516104b8919061290a565b9081526020016040518091039020600101839080600181540180825580915050600190039060005260206000200160009091909190915090816104fb9190612713565b507f39ba59c49b01df8281d6c94c991ee209516bf77c73c1d5b68a4dd3ebb16ad307868560405161052d929190612921565b60405180910390a15b7fa3d80337e3cf6fc1a4f03c067968b1b46a41a176c21c9d896909ff557aed4454600354898989898989338a60405161057799989796959493929190612361565b60405180910390a15050505050505050565b6002818154811061059957600080fd5b9060005260206000200160009150905080546105b490612536565b80601f01602080910402602001604051908101604052809291908181526020018280546105e090612536565b801561062d5780601f106106025761010080835404028352916020019161062d565b820191906000526020600020905b81548152906001019060200180831161061057829003601f168201915b505050505081565b60606000805b6002805490508110156106a45760016002828154811061065e5761065d6127e5565b5b9060005260206000200160405161067591906129db565b9081526020016040518091039020600101805490508261069591906129f2565b9150808060010191505061063b565b5060008167ffffffffffffffff8111156106c1576106c0611b1f565b5b6040519080825280602002602001820160405280156106f457816020015b60608152602001906001900390816106df5790505b5090506000805b6002805490508110156108625760005b600160028381548110610721576107206127e5565b5b9060005260206000200160405161073891906129db565b9081526020016040518091039020600101805490508110156108545760016002838154811061076a576107696127e5565b5b9060005260206000200160405161078191906129db565b9081526020016040518091039020600001805461079d90612536565b80601f01602080910402602001604051908101604052809291908181526020018280546107c990612536565b80156108165780601f106107eb57610100808354040283529160200191610816565b820191906000526020600020905b8154815290600101906020018083116107f957829003601f168201915b505050505084848151811061082e5761082d6127e5565b5b60200260200101819052508280610844906124bf565b935050808060010191505061070b565b5080806001019150506106fb565b5081935050505090565b60035481565b6060600080600190505b60035481116108de5783805190602001206000808381526020019081526020016000206003016040516108af91906128b7565b6040518091039020036108cb5781806108c7906124bf565b9250505b80806108d6906124bf565b91505061087c565b508067ffffffffffffffff8111156108f9576108f8611b1f565b5b60405190808252806020026020018201604052801561093257816020015b61091f611a8c565b8152602001906001900390816109175790505b509150600080600190505b6003548111610dc257848051906020012060008083815260200190815260200160002060030160405161097091906128b7565b604051809103902003610daf5760008082815260200190815260200160002060405180610120016040529081600082015481526020016001820180546109b590612536565b80601f01602080910402602001604051908101604052809291908181526020018280546109e190612536565b8015610a2e5780601f10610a0357610100808354040283529160200191610a2e565b820191906000526020600020905b815481529060010190602001808311610a1157829003601f168201915b50505050508152602001600282018054610a4790612536565b80601f0160208091040260200160405190810160405280929190818152602001828054610a7390612536565b8015610ac05780601f10610a9557610100808354040283529160200191610ac0565b820191906000526020600020905b815481529060010190602001808311610aa357829003601f168201915b50505050508152602001600382018054610ad990612536565b80601f0160208091040260200160405190810160405280929190818152602001828054610b0590612536565b8015610b525780601f10610b2757610100808354040283529160200191610b52565b820191906000526020600020905b815481529060010190602001808311610b3557829003601f168201915b50505050508152602001600482018054610b6b90612536565b80601f0160208091040260200160405190810160405280929190818152602001828054610b9790612536565b8015610be45780601f10610bb957610100808354040283529160200191610be4565b820191906000526020600020905b815481529060010190602001808311610bc757829003601f168201915b50505050508152602001600582018054610bfd90612536565b80601f0160208091040260200160405190810160405280929190818152602001828054610c2990612536565b8015610c765780601f10610c4b57610100808354040283529160200191610c76565b820191906000526020600020905b815481529060010190602001808311610c5957829003601f168201915b50505050508152602001600682018054610c8f90612536565b80601f0160208091040260200160405190810160405280929190818152602001828054610cbb90612536565b8015610d085780601f10610cdd57610100808354040283529160200191610d08565b820191906000526020600020905b815481529060010190602001808311610ceb57829003601f168201915b505050505081526020016007820160009054906101000a900473ffffffffffffffffffffffffffffffffffffffff1673ffffffffffffffffffffffffffffffffffffffff1673ffffffffffffffffffffffffffffffffffffffff1681526020016007820160149054906101000a900460ff161515151581525050848381518110610d9557610d946127e5565b5b60200260200101819052508180610dab906124bf565b9250505b8080610dba906124bf565b91505061093d565b505050919050565b600181805160208101820180518482526020830160208501208183528095505050505050600091509050806000018054610e0390612536565b80601f0160208091040260200160405190810160405280929190818152602001828054610e2f90612536565b8015610e7c5780601f10610e5157610100808354040283529160200191610e7c565b820191906000526020600020905b815481529060010190602001808311610e5f57829003601f168201915b5050505050905081565b6060600080600190505b6003548111610f69578580519060200120600080838152602001908152602001600020600301604051610ec391906128b7565b6040518091039020148015610f0757508480519060200120600080838152602001908152602001600020600501604051610efd91906128b7565b6040518091039020145b8015610f4257508380519060200120600080838152602001908152602001600020600601604051610f3891906128b7565b6040518091039020145b15610f56578180610f52906124bf565b9250505b8080610f61906124bf565b915050610e90565b508067ffffffffffffffff811115610f8457610f83611b1f565b5b604051908082528060200260200182016040528015610fbd57816020015b610faa611a8c565b815260200190600190039081610fa25790505b509150600080600190505b60035481116114c4578680519060200120600080838152602001908152602001600020600301604051610ffb91906128b7565b604051809103902014801561103f5750858051906020012060008083815260200190815260200160002060050160405161103591906128b7565b6040518091039020145b801561107a5750848051906020012060008083815260200190815260200160002060060160405161107091906128b7565b6040518091039020145b156114b15760008082815260200190815260200160002060405180610120016040529081600082015481526020016001820180546110b790612536565b80601f01602080910402602001604051908101604052809291908181526020018280546110e390612536565b80156111305780601f1061110557610100808354040283529160200191611130565b820191906000526020600020905b81548152906001019060200180831161111357829003601f168201915b5050505050815260200160028201805461114990612536565b80601f016020809104026020016040519081016040528092919081815260200182805461117590612536565b80156111c25780601f10611197576101008083540402835291602001916111c2565b820191906000526020600020905b8154815290600101906020018083116111a557829003601f168201915b505050505081526020016003820180546111db90612536565b80601f016020809104026020016040519081016040528092919081815260200182805461120790612536565b80156112545780601f1061122957610100808354040283529160200191611254565b820191906000526020600020905b81548152906001019060200180831161123757829003601f168201915b5050505050815260200160048201805461126d90612536565b80601f016020809104026020016040519081016040528092919081815260200182805461129990612536565b80156112e65780601f106112bb576101008083540402835291602001916112e6565b820191906000526020600020905b8154815290600101906020018083116112c957829003601f168201915b505050505081526020016005820180546112ff90612536565b80601f016020809104026020016040519081016040528092919081815260200182805461132b90612536565b80156113785780601f1061134d57610100808354040283529160200191611378565b820191906000526020600020905b81548152906001019060200180831161135b57829003601f168201915b5050505050815260200160068201805461139190612536565b80601f01602080910402602001604051908101604052809291908181526020018280546113bd90612536565b801561140a5780601f106113df5761010080835404028352916020019161140a565b820191906000526020600020905b8154815290600101906020018083116113ed57829003601f168201915b505050505081526020016007820160009054906101000a900473ffffffffffffffffffffffffffffffffffffffff1673ffffffffffffffffffffffffffffffffffffffff1673ffffffffffffffffffffffffffffffffffffffff1681526020016007820160149054906101000a900460ff161515151581525050848381518110611497576114966127e5565b5b602002602001018190525081806114ad906124bf565b9250505b80806114bc906124bf565b915050610fc8565b5050509392505050565b60006020528060005260406000206000915090508060000154908060010180546114f790612536565b80601f016020809104026020016040519081016040528092919081815260200182805461152390612536565b80156115705780601f1061154557610100808354040283529160200191611570565b820191906000526020600020905b81548152906001019060200180831161155357829003601f168201915b50505050509080600201805461158590612536565b80601f01602080910402602001604051908101604052809291908181526020018280546115b190612536565b80156115fe5780601f106115d3576101008083540402835291602001916115fe565b820191906000526020600020905b8154815290600101906020018083116115e157829003601f168201915b50505050509080600301805461161390612536565b80601f016020809104026020016040519081016040528092919081815260200182805461163f90612536565b801561168c5780601f106116615761010080835404028352916020019161168c565b820191906000526020600020905b81548152906001019060200180831161166f57829003601f168201915b5050505050908060040180546116a190612536565b80601f01602080910402602001604051908101604052809291908181526020018280546116cd90612536565b801561171a5780601f106116ef5761010080835404028352916020019161171a565b820191906000526020600020905b8154815290600101906020018083116116fd57829003601f168201915b50505050509080600501805461172f90612536565b80601f016020809104026020016040519081016040528092919081815260200182805461175b90612536565b80156117a85780601f1061177d576101008083540402835291602001916117a8565b820191906000526020600020905b81548152906001019060200180831161178b57829003601f168201915b5050505050908060060180546117bd90612536565b80601f01602080910402602001604051908101604052809291908181526020018280546117e990612536565b80156118365780601f1061180b57610100808354040283529160200191611836565b820191906000526020600020905b81548152906001019060200180831161181957829003601f168201915b5050505050908060070160009054906101000a900473ffffffffffffffffffffffffffffffffffffffff16908060070160149054906101000a900460ff16905089565b60608180519060200120600184604051611893919061290a565b90815260200160405180910390206000016040516118b191906128b7565b6040518091039020146118f9576040517f08c379a00000000000000000000000000000000000000000000000000000000081526004016118f090612a72565b60405180910390fd5b600183604051611909919061290a565b9081526020016040518091039020600101805480602002602001604051908101604052809291908181526020016000905b828210156119e657838290600052602060002001805461195990612536565b80601f016020809104026020016040519081016040528092919081815260200182805461198590612536565b80156119d25780601f106119a7576101008083540402835291602001916119d2565b820191906000526020600020905b8154815290600101906020018083116119b557829003601f168201915b50505050508152602001906001019061193a565b50505050905092915050565b600080600090505b600184604051611a0a919061290a565b908152602001604051809103902060010180549050811015611a80578280519060200120600185604051611a3e919061290a565b9081526020016040518091039020600001604051611a5c91906128b7565b604051809103902003611a73576001915050611a86565b80806001019150506119fa565b50600090505b92915050565b60405180610120016040528060008152602001606081526020016060815260200160608152602001606081526020016060815260200160608152602001600073ffffffffffffffffffffffffffffffffffffffff1681526020016000151581525090565b6000604051905090565b600080fd5b600080fd5b600080fd5b600080fd5b6000601f19601f8301169050919050565b7f4e487b7100000000000000000000000000000000000000000000000000000000600052604160045260246000fd5b611b5782611b0e565b810181811067ffffffffffffffff82111715611b7657611b75611b1f565b5b80604052505050565b6000611b89611af0565b9050611b958282611b4e565b919050565b600067ffffffffffffffff821115611bb557611bb4611b1f565b5b611bbe82611b0e565b9050602081019050919050565b82818337600083830152505050565b6000611bed611be884611b9a565b611b7f565b905082815260208101848484011115611c0957611c08611b09565b5b611c14848285611bcb565b509392505050565b600082601f830112611c3157611c30611b04565b5b8135611c41848260208601611bda565b91505092915050565b60008115159050919050565b611c5f81611c4a565b8114611c6a57600080fd5b50565b600081359050611c7c81611c56565b92915050565b600080600080600080600060e0888a031215611ca157611ca0611afa565b5b600088013567ffffffffffffffff811115611cbf57611cbe611aff565b5b611ccb8a828b01611c1c565b975050602088013567ffffffffffffffff811115611cec57611ceb611aff565b5b611cf88a828b01611c1c565b965050604088013567ffffffffffffffff811115611d1957611d18611aff565b5b611d258a828b01611c1c565b955050606088013567ffffffffffffffff811115611d4657611d45611aff565b5b611d528a828b01611c1c565b945050608088013567ffffffffffffffff811115611d7357611d72611aff565b5b611d7f8a828b01611c1c565b93505060a088013567ffffffffffffffff811115611da057611d9f611aff565b5b611dac8a828b01611c1c565b92505060c0611dbd8a828b01611c6d565b91505092959891949750929550565b6000819050919050565b611ddf81611dcc565b8114611dea57600080fd5b50565b600081359050611dfc81611dd6565b92915050565b600060208284031215611e1857611e17611afa565b5b6000611e2684828501611ded565b91505092915050565b600081519050919050565b600082825260208201905092915050565b60005b83811015611e69578082015181840152602081019050611e4e565b60008484015250505050565b6000611e8082611e2f565b611e8a8185611e3a565b9350611e9a818560208601611e4b565b611ea381611b0e565b840191505092915050565b60006020820190508181036000830152611ec88184611e75565b905092915050565b600081519050919050565b600082825260208201905092915050565b6000819050602082019050919050565b600082825260208201905092915050565b6000611f1882611e2f565b611f228185611efc565b9350611f32818560208601611e4b565b611f3b81611b0e565b840191505092915050565b6000611f528383611f0d565b905092915050565b6000602082019050919050565b6000611f7282611ed0565b611f7c8185611edb565b935083602082028501611f8e85611eec565b8060005b85811015611fca5784840389528151611fab8582611f46565b9450611fb683611f5a565b925060208a01995050600181019050611f92565b50829750879550505050505092915050565b60006020820190508181036000830152611ff68184611f67565b905092915050565b61200781611dcc565b82525050565b60006020820190506120226000830184611ffe565b92915050565b60006020828403121561203e5761203d611afa565b5b600082013567ffffffffffffffff81111561205c5761205b611aff565b5b61206884828501611c1c565b91505092915050565b600081519050919050565b600082825260208201905092915050565b6000819050602082019050919050565b6120a681611dcc565b82525050565b600073ffffffffffffffffffffffffffffffffffffffff82169050919050565b60006120d7826120ac565b9050919050565b6120e7816120cc565b82525050565b6120f681611c4a565b82525050565b600061012083016000830151612115600086018261209d565b506020830151848203602086015261212d8282611f0d565b915050604083015184820360408601526121478282611f0d565b915050606083015184820360608601526121618282611f0d565b9150506080830151848203608086015261217b8282611f0d565b91505060a083015184820360a08601526121958282611f0d565b91505060c083015184820360c08601526121af8282611f0d565b91505060e08301516121c460e08601826120de565b506101008301516121d96101008601826120ed565b508091505092915050565b60006121f083836120fc565b905092915050565b6000602082019050919050565b600061221082612071565b61221a818561207c565b93508360208202850161222c8561208d565b8060005b85811015612268578484038952815161224985826121e4565b9450612254836121f8565b925060208a01995050600181019050612230565b50829750879550505050505092915050565b600060208201905081810360008301526122948184612205565b905092915050565b6000806000606084860312156122b5576122b4611afa565b5b600084013567ffffffffffffffff8111156122d3576122d2611aff565b5b6122df86828701611c1c565b935050602084013567ffffffffffffffff811115612300576122ff611aff565b5b61230c86828701611c1c565b925050604084013567ffffffffffffffff81111561232d5761232c611aff565b5b61233986828701611c1c565b9150509250925092565b61234c816120cc565b82525050565b61235b81611c4a565b82525050565b600061012082019050612377600083018c611ffe565b8181036020830152612389818b611e75565b9050818103604083015261239d818a611e75565b905081810360608301526123b18189611e75565b905081810360808301526123c58188611e75565b905081810360a08301526123d98187611e75565b905081810360c08301526123ed8186611e75565b90506123fc60e0830185612343565b61240a610100830184612352565b9a9950505050505050505050565b6000806040838503121561242f5761242e611afa565b5b600083013567ffffffffffffffff81111561244d5761244c611aff565b5b61245985828601611c1c565b925050602083013567ffffffffffffffff81111561247a57612479611aff565b5b61248685828601611c1c565b9150509250929050565b7f4e487b7100000000000000000000000000000000000000000000000000000000600052601160045260246000fd5b60006124ca82611dcc565b91507fffffffffffffffffffffffffffffffffffffffffffffffffffffffffffffffff82036124fc576124fb612490565b5b600182019050919050565b7f4e487b7100000000000000000000000000000000000000000000000000000000600052602260045260246000fd5b6000600282049050600182168061254e57607f821691505b60208210810361256157612560612507565b5b50919050565b60008190508160005260206000209050919050565b60006020601f8301049050919050565b600082821b905092915050565b6000600883026125c97fffffffffffffffffffffffffffffffffffffffffffffffffffffffffffffffff8261258c565b6125d3868361258c565b95508019841693508086168417925050509392505050565b6000819050919050565b600061261061260b61260684611dcc565b6125eb565b611dcc565b9050919050565b6000819050919050565b61262a836125f5565b61263e61263682612617565b848454612599565b825550505050565b600090565b612653612646565b61265e818484612621565b505050565b5b818110156126825761267760008261264b565b600181019050612664565b5050565b601f8211156126c75761269881612567565b6126a18461257c565b810160208510156126b0578190505b6126c46126bc8561257c565b830182612663565b50505b505050565b600082821c905092915050565b60006126ea600019846008026126cc565b1980831691505092915050565b600061270383836126d9565b9150826002028217905092915050565b61271c82611e2f565b67ffffffffffffffff81111561273557612734611b1f565b5b61273f8254612536565b61274a828285612686565b600060209050601f83116001811461277d576000841561276b578287015190505b61277585826126f7565b8655506127dd565b601f19841661278b86612567565b60005b828110156127b35784890151825560018201915060208501945060208101905061278e565b868310156127d057848901516127cc601f8916826126d9565b8355505b6001600288020188555050505b505050505050565b7f4e487b7100000000000000000000000000000000000000000000000000000000600052603260045260246000fd5b600081905092915050565b60008190508160005260206000209050919050565b6000815461284181612536565b61284b8186612814565b94506001821660008114612866576001811461287b576128ae565b60ff19831686528115158202860193506128ae565b6128848561281f565b60005b838110156128a657815481890152600182019150602081019050612887565b838801955050505b50505092915050565b60006128c38284612834565b915081905092915050565b600081905092915050565b60006128e482611e2f565b6128ee81856128ce565b93506128fe818560208601611e4b565b80840191505092915050565b600061291682846128d9565b915081905092915050565b6000604082019050818103600083015261293b8185611e75565b9050818103602083015261294f8184611e75565b90509392505050565b6000815461296581612536565b61296f81866128ce565b9450600182166000811461298a576001811461299f576129d2565b60ff19831686528115158202860193506129d2565b6129a885612567565b60005b838110156129ca578154818901526001820191506020810190506129ab565b838801955050505b50505092915050565b60006129e78284612958565b915081905092915050565b60006129fd82611dcc565b9150612a0883611dcc565b9250828201905080821115612a2057612a1f612490565b5b92915050565b7f4272616e636820646f6573206e6f742065786973740000000000000000000000600082015250565b6000612a5c601583611e3a565b9150612a6782612a26565b602082019050919050565b60006020820190508181036000830152612a8b81612a4f565b905091905056fea26469706673582212203653b543b982f81ca258391aebe75c971c041aabb1c48f986cec93a7c0a1cc8664736f6c634300081c0033",
  "linkReferences": {},
  "deployedLinkReferences": {}
}