{
  "_format": "hh-sol-artifact-1",
  "contractName": "DocumentManagementSystem",
  "sourceName": "contracts/DocumentManagementSystem.sol",
  "abi": [
    {
      "anonymous": false,
      "inputs": [
        {
          "indexed": false,
          "internalType": "string",
          "name": "path",
          "type": "string"
        },
        {
          "indexed": false,
          "internalType": "string",
          "name": "branch",
          "type": "string"
        }
      ],
      "name": "BranchAdded",
      "type": "event"
    },
    {
      "anonymous": false,
      "inputs": [
        {
          "indexed": false,
          "internalType": "uint256",
          "name": "id",
          "type": "uint256"
        },
        {
          "indexed": false,
          "internalType": "string",
          "name": "fileName",
          "type": "string"
        },
        {
          "indexed": false,
          "internalType": "string",
          "name": "folderName",
          "type": "string"
        },
        {
          "indexed": false,
          "internalType": "string",
          "name": "path",
          "type": "string"
        },
        {
          "indexed": false,
          "internalType": "string",
          "name": "ipfsHash",
          "type": "string"
        },
        {
          "indexed": false,
          "internalType": "string",
          "name": "branch",
          "type": "string"
        },
        {
          "indexed": false,
          "internalType": "string",
          "name": "department",
          "type": "string"
        },
        {
          "indexed": false,
          "internalType": "address",
          "name": "uploader",
          "type": "address"
        },
        {
          "indexed": false,
          "internalType": "bool",
          "name": "isPrivate",
          "type": "bool"
        }
      ],
      "name": "FileUploaded",
      "type": "event"
    },
    {
      "inputs": [
        {
          "internalType": "uint256",
          "name": "",
          "type": "uint256"
        }
      ],
      "name": "allPaths",
      "outputs": [
        {
          "internalType": "string",
          "name": "",
          "type": "string"
        }
      ],
      "stateMutability": "view",
      "type": "function"
    },
    {
      "inputs": [
        {
          "internalType": "string",
          "name": "",
          "type": "string"
        }
      ],
      "name": "branchesByPath",
      "outputs": [
        {
          "internalType": "string",
          "name": "name",
          "type": "string"
        }
      ],
      "stateMutability": "view",
      "type": "function"
    },
    {
      "inputs": [],
      "name": "fileCount",
      "outputs": [
        {
          "internalType": "uint256",
          "name": "",
          "type": "uint256"
        }
      ],
      "stateMutability": "view",
      "type": "function"
    },
    {
      "inputs": [
        {
          "internalType": "uint256",
          "name": "",
          "type": "uint256"
        }
      ],
      "name": "files",
      "outputs": [
        {
          "internalType": "uint256",
          "name": "id",
          "type": "uint256"
        },
        {
          "internalType": "string",
          "name": "fileName",
          "type": "string"
        },
        {
          "internalType": "string",
          "name": "folderName",
          "type": "string"
        },
        {
          "internalType": "string",
          "name": "path",
          "type": "string"
        },
        {
          "internalType": "string",
          "name": "ipfsHash",
          "type": "string"
        },
        {
          "internalType": "string",
          "name": "branch",
          "type": "string"
        },
        {
          "internalType": "string",
          "name": "department",
          "type": "string"
        },
        {
          "internalType": "address",
          "name": "uploader",
          "type": "address"
        },
        {
          "internalType": "bool",
          "name": "isPrivate",
          "type": "bool"
        }
      ],
      "stateMutability": "view",
      "type": "function"
    },
    {
      "inputs": [],
      "name": "getAllBranches",
      "outputs": [
        {
          "internalType": "string[]",
          "name": "",
          "type": "string[]"
        }
      ],
      "stateMutability": "view",
      "type": "function"
    },
    {
      "inputs": [
        {
          "internalType": "string",
          "name": "_branch",
          "type": "string"
        }
      ],
      "name": "getDepartmentsByBranch",
      "outputs": [
        {
          "internalType": "string[]",
          "name": "departments",
          "type": "string[]"
        }
      ],
      "stateMutability": "view",
      "type": "function"
    },
    {
      "inputs": [
        {
          "internalType": "string",
          "name": "_branch",
          "type": "string"
        },
        {
          "internalType": "string",
          "name": "_department",
          "type": "string"
        },
        {
          "internalType": "string",
          "name": "_folderName",
          "type": "string"
        }
      ],
      "name": "getFilesByFolder",
      "outputs": [
        {
          "components": [
            {
              "internalType": "uint256",
              "name": "id",
              "type": "uint256"
            },
            {
              "internalType": "string",
              "name": "fileName",
              "type": "string"
            },
            {
              "internalType": "string",
              "name": "folderName",
              "type": "string"
            },
            {
              "internalType": "string",
              "name": "path",
              "type": "string"
            },
            {
              "internalType": "string",
              "name": "ipfsHash",
              "type": "string"
            },
            {
              "internalType": "string",
              "name": "branch",
              "type": "string"
            },
            {
              "internalType": "string",
              "name": "department",
              "type": "string"
            },
            {
              "internalType": "address",
              "name": "uploader",
              "type": "address"
            },
            {
              "internalType": "bool",
              "name": "isPrivate",
              "type": "bool"
            }
          ],
          "internalType": "struct DocumentManagementSystem.File[]",
          "name": "fileDetails",
          "type": "tuple[]"
        }
      ],
      "stateMutability": "view",
      "type": "function"
    },
    {
      "inputs": [
        {
          "internalType": "string",
          "name": "_path",
          "type": "string"
        }
      ],
      "name": "getFilesByPath",
      "outputs": [
        {
          "components": [
            {
              "internalType": "uint256",
              "name": "id",
              "type": "uint256"
            },
            {
              "internalType": "string",
              "name": "fileName",
              "type": "string"
            },
            {
              "internalType": "string",
              "name": "folderName",
              "type": "string"
            },
            {
              "internalType": "string",
              "name": "path",
              "type": "string"
            },
            {
              "internalType": "string",
              "name": "ipfsHash",
              "type": "string"
            },
            {
              "internalType": "string",
              "name": "branch",
              "type": "string"
            },
            {
              "internalType": "string",
              "name": "department",
              "type": "string"
            },
            {
              "internalType": "address",
              "name": "uploader",
              "type": "address"
            },
            {
              "internalType": "bool",
              "name": "isPrivate",
              "type": "bool"
            }
          ],
          "internalType": "struct DocumentManagementSystem.File[]",
          "name": "fileDetails",
          "type": "tuple[]"
        }
      ],
      "stateMutability": "view",
      "type": "function"
    },
    {
      "inputs": [
        {
          "internalType": "string",
          "name": "_branch",
          "type": "string"
        },
        {
          "internalType": "string",
          "name": "_department",
          "type": "string"
        }
      ],
      "name": "getFoldersByDepartment",
      "outputs": [
        {
          "internalType": "string[]",
          "name": "folders",
          "type": "string[]"
        }
      ],
      "stateMutability": "view",
      "type": "function"
    },
    {
      "inputs": [
        {
          "internalType": "string[]",
          "name": "_fileNames",
          "type": "string[]"
        },
        {
          "internalType": "string",
          "name": "_folderName",
          "type": "string"
        },
        {
          "internalType": "string",
          "name": "_path",
          "type": "string"
        },
        {
          "internalType": "string[]",
          "name": "_ipfsHashes",
          "type": "string[]"
        },
        {
          "internalType": "string",
          "name": "_branch",
          "type": "string"
        },
        {
          "internalType": "string",
          "name": "_department",
          "type": "string"
        },
        {
          "internalType": "bool",
          "name": "_isPrivate",
          "type": "bool"
        }
      ],
      "name": "uploadFiles",
      "outputs": [],
      "stateMutability": "nonpayable",
      "type": "function"
    }
  ],
  "bytecode": "0x6080604052348015600f57600080fd5b5061322c8061001f6000396000f3fe608060405234801561001057600080fd5b506004361061009d5760003560e01c80634507010211610066578063450701021461015a578063bb3c03671461018a578063f0d81590146101ba578063f4c714b4146101ea578063f6f58b8e146102225761009d565b8062120c29146100a25780630dc1da4e146100be578063368b40d8146100ee5780633c0eadb01461011e578063439535191461013c575b600080fd5b6100bc60048036038101906100b791906123f4565b610252565b005b6100d860048036038101906100d3919061253e565b610689565b6040516100e591906126c8565b60405180910390f35b61010860048036038101906101039190612720565b610a70565b6040516101159190612797565b60405180910390f35b610126610b1c565b60405161013391906126c8565b60405180910390f35b610144610d93565b60405161015191906127c8565b60405180910390f35b610174600480360381019061016f91906127e3565b610d99565b60405161018191906126c8565b60405180910390f35b6101a4600480360381019061019f919061253e565b611077565b6040516101b19190612a64565b60405180910390f35b6101d460048036038101906101cf919061253e565b6115cf565b6040516101e19190612797565b60405180910390f35b61020460048036038101906101ff9190612720565b61168b565b60405161021999989796959493929190612aa4565b60405180910390f35b61023c60048036038101906102379190612b5b565b611a36565b6040516102499190612a64565b60405180910390f35b8351875114610296576040517f08c379a000000000000000000000000000000000000000000000000000000000815260040161028d90612c74565b60405180910390fd5b60005b87518110156104df57600360008154809291906102b590612cc3565b919050555060405180610120016040528060035481526020018983815181106102e1576102e0612d0b565b5b6020026020010151815260200188815260200187815260200186838151811061030d5761030c612d0b565b5b602002602001015181526020018581526020018481526020013373ffffffffffffffffffffffffffffffffffffffff168152602001831515815250600080600354815260200190815260200160002060008201518160000155602082015181600101908161037b9190612f46565b5060408201518160020190816103919190612f46565b5060608201518160030190816103a79190612f46565b5060808201518160040190816103bd9190612f46565b5060a08201518160050190816103d39190612f46565b5060c08201518160060190816103e99190612f46565b5060e08201518160070160006101000a81548173ffffffffffffffffffffffffffffffffffffffff021916908373ffffffffffffffffffffffffffffffffffffffff1602179055506101008201518160070160146101000a81548160ff0219169083151502179055509050507fa3d80337e3cf6fc1a4f03c067968b1b46a41a176c21c9d896909ff557aed445460035489838151811061048c5761048b612d0b565b5b602002602001015189898986815181106104a9576104a8612d0b565b5b60200260200101518989338a6040516104ca99989796959493929190612aa4565b60405180910390a18080600101915050610299565b506000805b6002805490508110156105475786805190602001206002828154811061050d5761050c612d0b565b5b9060005260206000200160405161052491906130bb565b60405180910390200361053a5760019150610547565b80806001019150506104e4565b5080610583576002869080600181540180825580915050600190039060005260206000200160009091909190915090816105819190612f46565b505b6000600187604051610595919061310e565b90815260200160405180910390206001018054905014806105bd57506105bb868561207e565b155b1561067f57836001876040516105d3919061310e565b908152602001604051809103902060000190816105f09190612f46565b50600186604051610601919061310e565b9081526020016040518091039020600101839080600181540180825580915050600190039060005260206000200160009091909190915090816106449190612f46565b507f39ba59c49b01df8281d6c94c991ee209516bf77c73c1d5b68a4dd3ebb16ad3078685604051610676929190613125565b60405180910390a15b5050505050505050565b6060600060035467ffffffffffffffff8111156106a9576106a86121a6565b5b6040519080825280602002602001820160405280156106dc57816020015b60608152602001906001900390816106c75790505b5090506000805b6002805490508110156109c657600060016002838154811061070857610707612d0b565b5b9060005260206000200160405161071f91906131df565b9081526020016040518091039020600001805461073b90612d69565b80601f016020809104026020016040519081016040528092919081815260200182805461076790612d69565b80156107b45780601f10610789576101008083540402835291602001916107b4565b820191906000526020600020905b81548152906001019060200180831161079757829003601f168201915b5050505050905085805190602001208180519060200120036109b85760006001600284815481106107e8576107e7612d0b565b5b906000526020600020016040516107ff91906131df565b9081526020016040518091039020600101805480602002602001604051908101604052809291908181526020016000905b828210156108dc57838290600052602060002001805461084f90612d69565b80601f016020809104026020016040519081016040528092919081815260200182805461087b90612d69565b80156108c85780601f1061089d576101008083540402835291602001916108c8565b820191906000526020600020905b8154815290600101906020018083116108ab57829003601f168201915b505050505081526020019060010190610830565b50505050905060005b81518110156109b5576000805b868110156109595783838151811061090d5761090c612d0b565b5b60200260200101518051906020012088828151811061092f5761092e612d0b565b5b6020026020010151805190602001200361094c5760019150610959565b80806001019150506108f2565b50806109a75782828151811061097257610971612d0b565b5b602002602001015187878151811061098d5761098c612d0b565b5b602002602001018190525085806109a390612cc3565b9650505b5080806001019150506108e5565b50505b5080806001019150506106e3565b508067ffffffffffffffff8111156109e1576109e06121a6565b5b604051908082528060200260200182016040528015610a1457816020015b60608152602001906001900390816109ff5790505b50925060005b81811015610a6857828181518110610a3557610a34612d0b565b5b6020026020010151848281518110610a5057610a4f612d0b565b5b60200260200101819052508080600101915050610a1a565b505050919050565b60028181548110610a8057600080fd5b906000526020600020016000915090508054610a9b90612d69565b80601f0160208091040260200160405190810160405280929190818152602001828054610ac790612d69565b8015610b145780601f10610ae957610100808354040283529160200191610b14565b820191906000526020600020905b815481529060010190602001808311610af757829003601f168201915b505050505081565b6060600060028054905067ffffffffffffffff811115610b3f57610b3e6121a6565b5b604051908082528060200260200182016040528015610b7257816020015b6060815260200190600190039081610b5d5790505b5090506000805b600280549050811015610ce5576000600160028381548110610b9e57610b9d612d0b565b5b90600052602060002001604051610bb591906131df565b90815260200160405180910390206000018054610bd190612d69565b80601f0160208091040260200160405190810160405280929190818152602001828054610bfd90612d69565b8015610c4a5780601f10610c1f57610100808354040283529160200191610c4a565b820191906000526020600020905b815481529060010190602001808311610c2d57829003601f168201915b505050505090506000805b84811015610ca2578280519060200120868281518110610c7857610c77612d0b565b5b60200260200101518051906020012003610c955760019150610ca2565b8080600101915050610c55565b5080610cd65781858581518110610cbc57610cbb612d0b565b5b60200260200101819052508380610cd290612cc3565b9450505b50508080600101915050610b79565b5060008167ffffffffffffffff811115610d0257610d016121a6565b5b604051908082528060200260200182016040528015610d3557816020015b6060815260200190600190039081610d205790505b50905060005b82811015610d8957838181518110610d5657610d55612d0b565b5b6020026020010151828281518110610d7157610d70612d0b565b5b60200260200101819052508080600101915050610d3b565b5080935050505090565b60035481565b6060600060035467ffffffffffffffff811115610db957610db86121a6565b5b604051908082528060200260200182016040528015610dec57816020015b6060815260200190600190039081610dd75790505b509050600080600190505b6003548111610fcc578580519060200120600080838152602001908152602001600020600501604051610e2a91906130bb565b6040518091039020148015610e6e57508480519060200120600080838152602001908152602001600020600601604051610e6491906130bb565b6040518091039020145b15610fb9576000805b83811015610ee657600080848152602001908152602001600020600201604051610ea191906130bb565b6040518091039020858281518110610ebc57610ebb612d0b565b5b60200260200101518051906020012003610ed95760019150610ee6565b8080600101915050610e77565b5080610fb7576000808381526020019081526020016000206002018054610f0c90612d69565b80601f0160208091040260200160405190810160405280929190818152602001828054610f3890612d69565b8015610f855780601f10610f5a57610100808354040283529160200191610f85565b820191906000526020600020905b815481529060010190602001808311610f6857829003601f168201915b5050505050848481518110610f9d57610f9c612d0b565b5b60200260200101819052508280610fb390612cc3565b9350505b505b8080610fc490612cc3565b915050610df7565b508067ffffffffffffffff811115610fe757610fe66121a6565b5b60405190808252806020026020018201604052801561101a57816020015b60608152602001906001900390816110055790505b50925060005b8181101561106e5782818151811061103b5761103a612d0b565b5b602002602001015184828151811061105657611055612d0b565b5b60200260200101819052508080600101915050611020565b50505092915050565b6060600080600190505b60035481116110e35783805190602001206000808381526020019081526020016000206003016040516110b491906130bb565b6040518091039020036110d05781806110cc90612cc3565b9250505b80806110db90612cc3565b915050611081565b508067ffffffffffffffff8111156110fe576110fd6121a6565b5b60405190808252806020026020018201604052801561113757816020015b611124612118565b81526020019060019003908161111c5790505b509150600080600190505b60035481116115c757848051906020012060008083815260200190815260200160002060030160405161117591906130bb565b6040518091039020036115b45760008082815260200190815260200160002060405180610120016040529081600082015481526020016001820180546111ba90612d69565b80601f01602080910402602001604051908101604052809291908181526020018280546111e690612d69565b80156112335780601f1061120857610100808354040283529160200191611233565b820191906000526020600020905b81548152906001019060200180831161121657829003601f168201915b5050505050815260200160028201805461124c90612d69565b80601f016020809104026020016040519081016040528092919081815260200182805461127890612d69565b80156112c55780601f1061129a576101008083540402835291602001916112c5565b820191906000526020600020905b8154815290600101906020018083116112a857829003601f168201915b505050505081526020016003820180546112de90612d69565b80601f016020809104026020016040519081016040528092919081815260200182805461130a90612d69565b80156113575780601f1061132c57610100808354040283529160200191611357565b820191906000526020600020905b81548152906001019060200180831161133a57829003601f168201915b5050505050815260200160048201805461137090612d69565b80601f016020809104026020016040519081016040528092919081815260200182805461139c90612d69565b80156113e95780601f106113be576101008083540402835291602001916113e9565b820191906000526020600020905b8154815290600101906020018083116113cc57829003601f168201915b5050505050815260200160058201805461140290612d69565b80601f016020809104026020016040519081016040528092919081815260200182805461142e90612d69565b801561147b5780601f106114505761010080835404028352916020019161147b565b820191906000526020600020905b81548152906001019060200180831161145e57829003601f168201915b5050505050815260200160068201805461149490612d69565b80601f01602080910402602001604051908101604052809291908181526020018280546114c090612d69565b801561150d5780601f106114e25761010080835404028352916020019161150d565b820191906000526020600020905b8154815290600101906020018083116114f057829003601f168201915b505050505081526020016007820160009054906101000a900473ffffffffffffffffffffffffffffffffffffffff1673ffffffffffffffffffffffffffffffffffffffff1673ffffffffffffffffffffffffffffffffffffffff1681526020016007820160149054906101000a900460ff16151515158152505084838151811061159a57611599612d0b565b5b602002602001018190525081806115b090612cc3565b9250505b80806115bf90612cc3565b915050611142565b505050919050565b60018180516020810182018051848252602083016020850120818352809550505050505060009150905080600001805461160890612d69565b80601f016020809104026020016040519081016040528092919081815260200182805461163490612d69565b80156116815780601f1061165657610100808354040283529160200191611681565b820191906000526020600020905b81548152906001019060200180831161166457829003601f168201915b5050505050905081565b60006020528060005260406000206000915090508060000154908060010180546116b490612d69565b80601f01602080910402602001604051908101604052809291908181526020018280546116e090612d69565b801561172d5780601f106117025761010080835404028352916020019161172d565b820191906000526020600020905b81548152906001019060200180831161171057829003601f168201915b50505050509080600201805461174290612d69565b80601f016020809104026020016040519081016040528092919081815260200182805461176e90612d69565b80156117bb5780601f10611790576101008083540402835291602001916117bb565b820191906000526020600020905b81548152906001019060200180831161179e57829003601f168201915b5050505050908060030180546117d090612d69565b80601f01602080910402602001604051908101604052809291908181526020018280546117fc90612d69565b80156118495780601f1061181e57610100808354040283529160200191611849565b820191906000526020600020905b81548152906001019060200180831161182c57829003601f168201915b50505050509080600401805461185e90612d69565b80601f016020809104026020016040519081016040528092919081815260200182805461188a90612d69565b80156118d75780601f106118ac576101008083540402835291602001916118d7565b820191906000526020600020905b8154815290600101906020018083116118ba57829003601f168201915b5050505050908060050180546118ec90612d69565b80601f016020809104026020016040519081016040528092919081815260200182805461191890612d69565b80156119655780601f1061193a57610100808354040283529160200191611965565b820191906000526020600020905b81548152906001019060200180831161194857829003601f168201915b50505050509080600601805461197a90612d69565b80601f01602080910402602001604051908101604052809291908181526020018280546119a690612d69565b80156119f35780601f106119c8576101008083540402835291602001916119f3565b820191906000526020600020905b8154815290600101906020018083116119d657829003601f168201915b5050505050908060070160009054906101000a900473ffffffffffffffffffffffffffffffffffffffff16908060070160149054906101000a900460ff16905089565b6060600080600190505b6003548111611b19578580519060200120600080838152602001908152602001600020600501604051611a7391906130bb565b6040518091039020148015611ab757508480519060200120600080838152602001908152602001600020600601604051611aad91906130bb565b6040518091039020145b8015611af257508380519060200120600080838152602001908152602001600020600201604051611ae891906130bb565b6040518091039020145b15611b06578180611b0290612cc3565b9250505b8080611b1190612cc3565b915050611a40565b508067ffffffffffffffff811115611b3457611b336121a6565b5b604051908082528060200260200182016040528015611b6d57816020015b611b5a612118565b815260200190600190039081611b525790505b509150600080600190505b6003548111612074578680519060200120600080838152602001908152602001600020600501604051611bab91906130bb565b6040518091039020148015611bef57508580519060200120600080838152602001908152602001600020600601604051611be591906130bb565b6040518091039020145b8015611c2a57508480519060200120600080838152602001908152602001600020600201604051611c2091906130bb565b6040518091039020145b15612061576000808281526020019081526020016000206040518061012001604052908160008201548152602001600182018054611c6790612d69565b80601f0160208091040260200160405190810160405280929190818152602001828054611c9390612d69565b8015611ce05780601f10611cb557610100808354040283529160200191611ce0565b820191906000526020600020905b815481529060010190602001808311611cc357829003601f168201915b50505050508152602001600282018054611cf990612d69565b80601f0160208091040260200160405190810160405280929190818152602001828054611d2590612d69565b8015611d725780601f10611d4757610100808354040283529160200191611d72565b820191906000526020600020905b815481529060010190602001808311611d5557829003601f168201915b50505050508152602001600382018054611d8b90612d69565b80601f0160208091040260200160405190810160405280929190818152602001828054611db790612d69565b8015611e045780601f10611dd957610100808354040283529160200191611e04565b820191906000526020600020905b815481529060010190602001808311611de757829003601f168201915b50505050508152602001600482018054611e1d90612d69565b80601f0160208091040260200160405190810160405280929190818152602001828054611e4990612d69565b8015611e965780601f10611e6b57610100808354040283529160200191611e96565b820191906000526020600020905b815481529060010190602001808311611e7957829003601f168201915b50505050508152602001600582018054611eaf90612d69565b80601f0160208091040260200160405190810160405280929190818152602001828054611edb90612d69565b8015611f285780601f10611efd57610100808354040283529160200191611f28565b820191906000526020600020905b815481529060010190602001808311611f0b57829003601f168201915b50505050508152602001600682018054611f4190612d69565b80601f0160208091040260200160405190810160405280929190818152602001828054611f6d90612d69565b8015611fba5780601f10611f8f57610100808354040283529160200191611fba565b820191906000526020600020905b815481529060010190602001808311611f9d57829003601f168201915b505050505081526020016007820160009054906101000a900473ffffffffffffffffffffffffffffffffffffffff1673ffffffffffffffffffffffffffffffffffffffff1673ffffffffffffffffffffffffffffffffffffffff1681526020016007820160149054906101000a900460ff16151515158152505084838151811061204757612046612d0b565b5b6020026020010181905250818061205d90612cc3565b9250505b808061206c90612cc3565b915050611b78565b5050509392505050565b600080600090505b600184604051612096919061310e565b90815260200160405180910390206001018054905081101561210c5782805190602001206001856040516120ca919061310e565b90815260200160405180910390206000016040516120e891906130bb565b6040518091039020036120ff576001915050612112565b8080600101915050612086565b50600090505b92915050565b60405180610120016040528060008152602001606081526020016060815260200160608152602001606081526020016060815260200160608152602001600073ffffffffffffffffffffffffffffffffffffffff1681526020016000151581525090565b6000604051905090565b600080fd5b600080fd5b600080fd5b6000601f19601f8301169050919050565b7f4e487b7100000000000000000000000000000000000000000000000000000000600052604160045260246000fd5b6121de82612195565b810181811067ffffffffffffffff821117156121fd576121fc6121a6565b5b80604052505050565b600061221061217c565b905061221c82826121d5565b919050565b600067ffffffffffffffff82111561223c5761223b6121a6565b5b602082029050602081019050919050565b600080fd5b600080fd5b600067ffffffffffffffff821115612272576122716121a6565b5b61227b82612195565b9050602081019050919050565b82818337600083830152505050565b60006122aa6122a584612257565b612206565b9050828152602081018484840111156122c6576122c5612252565b5b6122d1848285612288565b509392505050565b600082601f8301126122ee576122ed612190565b5b81356122fe848260208601612297565b91505092915050565b600061231a61231584612221565b612206565b9050808382526020820190506020840283018581111561233d5761233c61224d565b5b835b8181101561238457803567ffffffffffffffff81111561236257612361612190565b5b80860161236f89826122d9565b8552602085019450505060208101905061233f565b5050509392505050565b600082601f8301126123a3576123a2612190565b5b81356123b3848260208601612307565b91505092915050565b60008115159050919050565b6123d1816123bc565b81146123dc57600080fd5b50565b6000813590506123ee816123c8565b92915050565b600080600080600080600060e0888a03121561241357612412612186565b5b600088013567ffffffffffffffff8111156124315761243061218b565b5b61243d8a828b0161238e565b975050602088013567ffffffffffffffff81111561245e5761245d61218b565b5b61246a8a828b016122d9565b965050604088013567ffffffffffffffff81111561248b5761248a61218b565b5b6124978a828b016122d9565b955050606088013567ffffffffffffffff8111156124b8576124b761218b565b5b6124c48a828b0161238e565b945050608088013567ffffffffffffffff8111156124e5576124e461218b565b5b6124f18a828b016122d9565b93505060a088013567ffffffffffffffff8111156125125761251161218b565b5b61251e8a828b016122d9565b92505060c061252f8a828b016123df565b91505092959891949750929550565b60006020828403121561255457612553612186565b5b600082013567ffffffffffffffff8111156125725761257161218b565b5b61257e848285016122d9565b91505092915050565b600081519050919050565b600082825260208201905092915050565b6000819050602082019050919050565b600081519050919050565b600082825260208201905092915050565b60005b838110156125ed5780820151818401526020810190506125d2565b60008484015250505050565b6000612604826125b3565b61260e81856125be565b935061261e8185602086016125cf565b61262781612195565b840191505092915050565b600061263e83836125f9565b905092915050565b6000602082019050919050565b600061265e82612587565b6126688185612592565b93508360208202850161267a856125a3565b8060005b858110156126b657848403895281516126978582612632565b94506126a283612646565b925060208a0199505060018101905061267e565b50829750879550505050505092915050565b600060208201905081810360008301526126e28184612653565b905092915050565b6000819050919050565b6126fd816126ea565b811461270857600080fd5b50565b60008135905061271a816126f4565b92915050565b60006020828403121561273657612735612186565b5b60006127448482850161270b565b91505092915050565b600082825260208201905092915050565b6000612769826125b3565b612773818561274d565b93506127838185602086016125cf565b61278c81612195565b840191505092915050565b600060208201905081810360008301526127b1818461275e565b905092915050565b6127c2816126ea565b82525050565b60006020820190506127dd60008301846127b9565b92915050565b600080604083850312156127fa576127f9612186565b5b600083013567ffffffffffffffff8111156128185761281761218b565b5b612824858286016122d9565b925050602083013567ffffffffffffffff8111156128455761284461218b565b5b612851858286016122d9565b9150509250929050565b600081519050919050565b600082825260208201905092915050565b6000819050602082019050919050565b612890816126ea565b82525050565b600073ffffffffffffffffffffffffffffffffffffffff82169050919050565b60006128c182612896565b9050919050565b6128d1816128b6565b82525050565b6128e0816123bc565b82525050565b6000610120830160008301516128ff6000860182612887565b506020830151848203602086015261291782826125f9565b9150506040830151848203604086015261293182826125f9565b9150506060830151848203606086015261294b82826125f9565b9150506080830151848203608086015261296582826125f9565b91505060a083015184820360a086015261297f82826125f9565b91505060c083015184820360c086015261299982826125f9565b91505060e08301516129ae60e08601826128c8565b506101008301516129c36101008601826128d7565b508091505092915050565b60006129da83836128e6565b905092915050565b6000602082019050919050565b60006129fa8261285b565b612a048185612866565b935083602082028501612a1685612877565b8060005b85811015612a525784840389528151612a3385826129ce565b9450612a3e836129e2565b925060208a01995050600181019050612a1a565b50829750879550505050505092915050565b60006020820190508181036000830152612a7e81846129ef565b905092915050565b612a8f816128b6565b82525050565b612a9e816123bc565b82525050565b600061012082019050612aba600083018c6127b9565b8181036020830152612acc818b61275e565b90508181036040830152612ae0818a61275e565b90508181036060830152612af4818961275e565b90508181036080830152612b08818861275e565b905081810360a0830152612b1c818761275e565b905081810360c0830152612b30818661275e565b9050612b3f60e0830185612a86565b612b4d610100830184612a95565b9a9950505050505050505050565b600080600060608486031215612b7457612b73612186565b5b600084013567ffffffffffffffff811115612b9257612b9161218b565b5b612b9e868287016122d9565b935050602084013567ffffffffffffffff811115612bbf57612bbe61218b565b5b612bcb868287016122d9565b925050604084013567ffffffffffffffff811115612bec57612beb61218b565b5b612bf8868287016122d9565b9150509250925092565b7f46696c65206e616d657320616e6420495046532068617368657320617272617960008201527f73206d7573742068617665207468652073616d65206c656e6774680000000000602082015250565b6000612c5e603b8361274d565b9150612c6982612c02565b604082019050919050565b60006020820190508181036000830152612c8d81612c51565b9050919050565b7f4e487b7100000000000000000000000000000000000000000000000000000000600052601160045260246000fd5b6000612cce826126ea565b91507fffffffffffffffffffffffffffffffffffffffffffffffffffffffffffffffff8203612d0057612cff612c94565b5b600182019050919050565b7f4e487b7100000000000000000000000000000000000000000000000000000000600052603260045260246000fd5b7f4e487b7100000000000000000000000000000000000000000000000000000000600052602260045260246000fd5b60006002820490506001821680612d8157607f821691505b602082108103612d9457612d93612d3a565b5b50919050565b60008190508160005260206000209050919050565b60006020601f8301049050919050565b600082821b905092915050565b600060088302612dfc7fffffffffffffffffffffffffffffffffffffffffffffffffffffffffffffffff82612dbf565b612e068683612dbf565b95508019841693508086168417925050509392505050565b6000819050919050565b6000612e43612e3e612e39846126ea565b612e1e565b6126ea565b9050919050565b6000819050919050565b612e5d83612e28565b612e71612e6982612e4a565b848454612dcc565b825550505050565b600090565b612e86612e79565b612e91818484612e54565b505050565b5b81811015612eb557612eaa600082612e7e565b600181019050612e97565b5050565b601f821115612efa57612ecb81612d9a565b612ed484612daf565b81016020851015612ee3578190505b612ef7612eef85612daf565b830182612e96565b50505b505050565b600082821c905092915050565b6000612f1d60001984600802612eff565b1980831691505092915050565b6000612f368383612f0c565b9150826002028217905092915050565b612f4f826125b3565b67ffffffffffffffff811115612f6857612f676121a6565b5b612f728254612d69565b612f7d828285612eb9565b600060209050601f831160018114612fb05760008415612f9e578287015190505b612fa88582612f2a565b865550613010565b601f198416612fbe86612d9a565b60005b82811015612fe657848901518255600182019150602085019450602081019050612fc1565b868310156130035784890151612fff601f891682612f0c565b8355505b6001600288020188555050505b505050505050565b600081905092915050565b60008190508160005260206000209050919050565b6000815461304581612d69565b61304f8186613018565b9450600182166000811461306a576001811461307f576130b2565b60ff19831686528115158202860193506130b2565b61308885613023565b60005b838110156130aa5781548189015260018201915060208101905061308b565b838801955050505b50505092915050565b60006130c78284613038565b915081905092915050565b600081905092915050565b60006130e8826125b3565b6130f281856130d2565b93506131028185602086016125cf565b80840191505092915050565b600061311a82846130dd565b915081905092915050565b6000604082019050818103600083015261313f818561275e565b90508181036020830152613153818461275e565b90509392505050565b6000815461316981612d69565b61317381866130d2565b9450600182166000811461318e57600181146131a3576131d6565b60ff19831686528115158202860193506131d6565b6131ac85612d9a565b60005b838110156131ce578154818901526001820191506020810190506131af565b838801955050505b50505092915050565b60006131eb828461315c565b91508190509291505056fea26469706673582212204d2c5b130e78e09a65ccdea9910ce1367c920ae23af04f1bb87932e2c409669d64736f6c634300081c0033",
  "linkReferences": {},
  "deployedLinkReferences": {}
}